:020000040800F2
:10000000B0050020F1010008CD1C0008191C0008F3
:10001000C91C0008FD0200084D2C0008000000006B
:100020000000000000000000000000003D1D00086E
:100030000103000800000000D11C00083F1D00085B
:100040000B0200080B0200080B0200080B0200085C
:100050000B0200080B0200080B0200080B0200084C
:100060000B0200080B0200080B0200080B0200083C
:100070000B0200080B0200080B0200080B0200082C
:100080000B020008000000000B0200080B02000831
:100090000B0200080B0200080B0200080B0200080C
:1000A0000B0200080B0200080B0200080B020008FC
:1000B0000B0200080B0200080B0200080B020008EC
:1000C0000B0200080B0200080B0200080B020008DC
:1000D0000B0200083D2C00080B0200080B02000870
:1000E0000B0200080B0200080B0200080B020008BC
:1000F0000B0200080B0200080B02000800000000C1
:10010000000000000B020008000000000B020008C5
:100110000B020008000000000B0200080B020008A0
:100120000B0200080B0200080B0200080B0200087B
:100130000B02000800000000000000000B02000895
:100140000B0200080B020008000000000000000085
:10015000000000000000000000000000000000009F
:100160000000000000000000000000000B0200087A
:100170000B0200080000000000000000000000006A
:10018000000000000B02000800000000000000005A
:10019000000000000000000000000000000000005F
:1001A00000000000000000000B0200080B02000825
:1001B0000B0200080B0200080B0200080000000000
:1001C000000000000B02000800000000000000001A
:1001D0000B0200080B020008DFF810D000F07CF8DA
:1001E00000480047B52D0008AFF30080B00500209F
:1001F0000648804706480047FEE7FEE7FEE7FEE7C1
:10020000FEE7FEE7FEE7FEE7FEE7FEE7B11D0008BA
:10021000D90100082DE9F05F0546002092469B4673
:1002200088460646814640241BE02846414647460C
:10023000224600F041F853465A46C01A914110D365
:1002400011461846224600F028F82D1A67EB0108DF
:100250004F4622460120002100F01FF817EB00094D
:100260004E41201EA4F10104DFDC484631462A46F7
:100270004346BDE8F09FD2B201E000F8012B491ED1
:10028000FBD270470022F6E710B513460A46044633
:100290001946FFF7F0FF204610BD202A04DB203A64
:1002A00000FA02F1002070479140C2F1200320FAC9
:1002B00003F3194390407047202A04DB203A21FAC7
:1002C00002F00021704721FA02F3D040C2F120026F
:1002D0009140084319467047064C074D06E0E06818
:1002E00040F0010394E8070098471034AC42F6D37D
:1002F000FFF776FF5C2E00087C2E000800BFFEE7AB
:10030000704772B600BFFEE70146002091F8252035
:10031000022A03D00422CA63012027E00A68126877
:1003200022F00E020B681A608A6C126822F4807246
:100330008B6C1A600A68126822F001020B681A605E
:1003400091F8442002F01F0301229A400B6C5A607E
:10035000D1E913325A604A6D42B14A6D126822F4F3
:1003600080724B6D1A60D1E916325A60012281F811
:10037000252000BF002281F8242000BF704770B5FF
:100380000446002594F8250002280BD00420E063E1
:10039000012084F8250000BF002084F8240000BF5D
:1003A000012534E02068006820F00E002168086014
:1003B0002068006820F0010021680860A06C0068D7
:1003C00020F48070A16C086094F8440000F01F01D4
:1003D00001208840216C4860D4E913104860606DAA
:1003E00040B1606D006820F48070616D0860D4E9F0
:1003F00016104860012084F8250000BF002084F812
:10040000240000BFA06B10B12046A16B884728468E
:1004100070BD000078B502460B460021CAE00126F7
:100420008E401D6805EA0604002C73D01D7905F086
:100430000305012D04D01D7905F00305022D13D10C
:1004400090684E000325B540A8434E00DD68B540D6
:1004500028439060506801258D40A8431D79C5F35D
:1004600000158D40284350601D7905F00305032DCC
:1004700009D0D0684E000325B540A8434E009D68C2
:10048000B5402843D0601D7905F00305022D13D136
:10049000CE0802F1200555F826004D07EE0E0F2577
:1004A000B540A8434E07F60E1D69B5402843CE0857
:1004B00002F1200545F8260010684E000325B540DE
:1004C000A8431D7905F003054E00B5402843106090
:1004D0005D6805F44035002D6BD000BF384D2D6EA2
:1004E00045F00105364E356635462D6E05F00105A1
:1004F000009500BF00BF4FEAB6358E0855F82600BC
:100500008D072E0F0F25B540A843B2F1904F02D1B1
:1005100000251AE04DE02B4DAA4201D1012514E03F
:10052000294DAA4201D102250FE0284DAA4201D14E
:1005300003250AE0264DAA4201D1042505E0254DF8
:10054000AA4201D1052500E006258E07360FB540E9
:100550002843214D8E0845F82600204D2868A043E9
:100560005D6805F4801505B120431C4D28602D1DE4
:100570002868A0435D6805F4001505B12043174DB8
:100580002D1D2860154D2D1F2868A0435D6805F4BA
:10059000003505B12043114D2D1F28602D1F2868FF
:1005A000A0435D6805F4803505B120430B4D083D3F
:1005B0002860491C1D68CD40002D7FF430AF78BD08
:1005C000001002400004004800080048000C0048E9
:1005D00000100048001400480800014008040140D1
:1005E00001480068704700000C00002003480068C4
:1005F0000349096808440149086070470C0000205D
:100600001400002010B50024032000F0ABF80F20E8
:1006100000F008F808B1012401E000F02FF82046AE
:1006200010BD000070B50446002511480068D8B11F
:100630000F4800684FF47A71B1FBF0F00D4909687A
:10064000B1FBF0F6304600F025FF58B9102C07D268
:1006500000222146501E00F047F80748046004E0DD
:10066000012502E0012500E00125284670BD0000BB
:1006700014000020180000201000002008B500BF62
:100680000E48006E40F001000C4908660846006EF6
:1006900000F00100009000BF00BF00BF0846806D61
:1006A00040F0805088650846806D00F080500090D2
:1006B00000BF00BF00F0F6F808BD000000100240C7
:1006C0000146084600280DDB00BF00BF00F01F03F5
:1006D00001229A4043099B0003F1E023C3F8002163
:1006E00000BF00BF00BF70472DE9F05F80460D4698
:1006F000164602F0BDFA074639462A46334601F04F
:100700000700C0F1070ABAF1040F02D94FF0040A3A
:1007100001E0C0F1070AD14600F1040ABAF1070F5F
:1007200002D24FF0000A01E0A0F1030AD4464FF0D4
:10073000010A0AFA09FAAAF1010A0AEA020A0AFAFD
:100740000CFA4FF0010B0BFA0CFBABF1010B0BEAAF
:10075000030B4AEA0B042146404602F091FABDE839
:10076000F09F000000BF00F00702064B19684FF62B
:10077000FF031940044B0B4343EA0221014B19606C
:1007800000BF70470CED00E00000FA0502468ABB8E
:100790004148006800F4C060B0F5806F2BD13E483E
:1007A0008030006820F480703B4BC3F8800018460E
:1007B000006820F4C06040F400701860374800689A
:1007C00032235843364BB0FBF3F0411C00E0491E86
:1007D0003148406900F48060B0F5806F01D1002994
:1007E000F5D12D48406900F48060B0F5806F51D19B
:1007F0000320704708E028488030006820F48070AB
:10080000254BC3F8800045E0B2F5007F3AD122487D
:10081000006800F4C060B0F5806F2AD11E488030B7
:10082000006840F480701C4BC3F8800018460068D4
:1008300020F4C06040F4007018601848006832234B
:100840005843174BB0FBF3F0411C00E0491E12481F
:10085000406900F48060B0F5806F01D10029F5D1C6
:100860000D48406900F48060B0F5806F12D103201C
:10087000BFE709488030006840F48070064BC3F839
:10088000800007E00448006820F4C06040F4806005
:10089000014B18600020ACE70070004018000020F9
:1008A00040420F000348806840F48040014988605E
:1008B00070470000007000402DE9F843044600270F
:1008C000B846206800F40020B0F5002F73D1B94677
:1008D000D348806D00F0805078B900BFD048806D5B
:1008E00040F08050CE4988650846806D00F0805009
:1008F000009000BF00BF4FF00109CA48006840F4F3
:100900008070C8490860FFF76BFE064606E0FFF7F7
:1009100067FE801B022801D9032705E0C148006853
:1009200000F480700028F2D000BF002F46D1BC48F0
:100930009030006800F44075CDB1206CA84216D00C
:10094000B7489030006820F44075B548D0F8900062
:1009500040F48030B249C1F890000846D0F89000C9
:1009600020F48030C1F890000846C0F8905005F09F
:100970000100A0B1FFF734FE064608E0FFF730FEA5
:10098000801B41F28831884201D9032706E0A44840
:100990009030006800F002000028EFD000BF5FB97F
:1009A0009F489030006820F44070216C08439C49B7
:1009B000C1F8900003E00CE0B84600E0B846B9F199
:1009C000010F05D19648806D20F0805094498865CC
:1009D00000BF207800F0010048B1914888300068DD
:1009E00020F00300616808438D49C1F88800207831
:1009F00000F00200022809D189488830006820F000
:100A00000C00A16808438649C1F88800207800F0EE
:100A10000400042809D182488830006820F03000A2
:100A2000E16808437E49C1F88800207800F008009A
:100A3000082809D17A488830006820F0C000216970
:100A400008437749C1F88800207800F0200020286A
:100A500009D173488830006820F440606169084318
:100A60006F49C1F88800207800F04000402809D183
:100A70006B488830006820F44050A16908436849F9
:100A8000C1F88800207800F08000802809D16448EF
:100A90008830006820F44040E16908436049C1F8AB
:100AA0008800208800F48070B0F5807F09D15C4810
:100AB0008830006820F44030216A08435849C1F862
:100AC0008800208800F40070B0F5007F09D15448F8
:100AD0008830006820F44020616A08435049C1F81A
:100AE0008800208800F48060B0F5806F13D14C48F6
:100AF0008830006820F44010A16A084348498831D2
:100B00000860A06AB0F5801F05D14548C06840F470
:100B100080104349C860208800F40060B0F5006F81
:100B200013D13F488830006820F44000E16A084350
:100B30003B4988310860E06AB0F5800F05D138483C
:100B4000C06840F480103649C860208800F48050A6
:100B5000B0F5805F13D132488830006820F04070D3
:100B6000216B08432E4988310860206BB0F1807FEB
:100B700005D12B48C06840F480102949C8602088FE
:100B800000F40050B0F5005F13D1254888300068AC
:100B900020F04060616B0843214988310860606B38
:100BA000B0F1006F05D11E48C06840F480101C49A8
:100BB000C860208800F48040B0F5804F13D11848F9
:100BC0008830006820F04060A16B084314498831E8
:100BD0000860A06BB0F1006F05D11148C06840F407
:100BE00080100F49C860208800F40040B0F5004F25
:100BF00013D10B488830006820F04050E16B084367
:100C0000074988310860E06BB0F1805F05D1044886
:100C1000C06840F480300249C8604046BDE8F883AF
:100C200000100240007000402DE9F04104460D46DE
:100C30004FF0000814B90120BDE8F0817D4800683C
:100C400000F00F00A8420ED27A48006820F00F0092
:100C50002843784908600846006800F00F00A84261
:100C600001D00120E8E7207800F00100002864D0DE
:100C70006068032823D17048006800F0007008B94C
:100C80000120D9E701F026F806466C48864237D99C
:100C90006948806800F0F00030B1207800F0020070
:100CA00002282DD1A06858BB6348806820F0F0006E
:100CB00040F08000604988604FF0800820E0606864
:100CC000022806D15C48006800F4003040B90120D9
:100CD000B2E75948006800F4806008B90120ABE72A
:100CE00000F0DEF806465548864209D95248806829
:100CF00020F0F00040F080004F4988604FF08008FD
:100D00004D48806820F00300616808434A498860C4
:100D1000FFF766FC074608E0FFF762FCC01B41F2E4
:100D20008831884201D9032086E74348806800F073
:100D30000C006168B0EB810FEED1207800F002006A
:100D4000022820D1207800F00400042805D13A4878
:100D5000806840F4E06038498860207800F008003E
:100D6000082807D13448806820F4605040F4E060DF
:100D7000314988603048806820F0F000A16808435D
:100D80002D49886008E0B8F1800F05D12A488068B5
:100D900020F0F000284988602648006800F00F0025
:100DA000A84219D92348006820F00F0028432149A0
:100DB0000860FFF715FC074608E0FFF711FCC01BB1
:100DC00041F28831884201D9032035E7194800688B
:100DD00000F00F00A842F0D1207800F004000428B1
:100DE00007D11548806820F4E060E16808431249A3
:100DF0008860207800F00800082808D10E48806834
:100E000020F46050216940EAC1000B49886000F07D
:100E100047F809498968C1F30311094A515C01F097
:100E20001F01C8400749086007480068FFF7FAFB40
:100E300002E70000002002400010024000B4C40499
:100E4000442E00081800002010000020014800680F
:100E5000704700001800002000B5FFF7F7FF0549B4
:100E60008968C1F30221044A515C01F01F01C840A6
:100E700000BD000000100240542E000800B5FFF72E
:100E8000E5FF05498968C1F3C221044A515C01F0BC
:100E90001F01C84000BD000000100240542E000891
:100EA00070B5224DAD6805F00C05042D01D1204828
:100EB0003AE01E4DAD6805F00C05082D01D11D4826
:100EC00032E01A4DAD6805F00C050C2D2BD1174DF5
:100ED000ED6805F00304154DED68C5F303156A1CB4
:100EE000022C0CD0032C09D1124DB5FBF2F50F4E9C
:100EF000F668C6F3062605FB06F10AE000BF0C4DB6
:100F0000B5FBF2F5094EF668C6F3062605FB06F1B9
:100F100000BF00BF054DED68C5F341656D1C6B005A
:100F2000B1FBF3F000E0002070BD000000100240B3
:100F30000024F40000366E012DE9F843044614B98C
:100F40000120BDE8F883207800F00100002865D07A
:100F5000FC48806800F00C07FA48C06800F00306FF
:100F60000C2F01D1032E01D0082F0AD1F5480068BB
:100F700000F40030002851D0606800284ED10120D4
:100F8000DFE700BF6068B0F5803F06D1ED4800683C
:100F900040F48030EB4908601AE06068B0F5A02F9B
:100FA0000BD1E848006840F48020E6490860084614
:100FB000006840F4803008600AE0E248006820F4ED
:100FC0008030E04908600846006820F4802008600E
:100FD00000BF606888B1FFF703FB054606E0FFF736
:100FE000FFFA401B642801D90320AAE7D54800680E
:100FF00000F400300028F2D010E0FFF7F1FA0546C7
:1010000006E0FFF7EDFA401B642801D9032098E7BA
:10101000CC48006800F400300028F2D1207800F0BD
:101020000200022860D1C748806800F00C07C5485C
:10103000C06800F003060C2F01D1022E01D0042F4E
:1010400018D1C048006800F4806018B1E06808B9A1
:10105000012076E7BB48406820F0FE40217C40EA52
:101060000160B8494860B8480068FFF7DBFA18B378
:10107000012066E7E06800B3B248006840F4807081
:10108000B0490860FFF7ACFA054606E0FFF7A8FA9A
:10109000401B022801D9032053E7AA48006800F446
:1010A00080600028F2D0A748406820F0FE40217CF4
:1010B00040EA0160A349486016E0A248006820F4B5
:1010C0008070A0490860FFF78BFA054606E0FFF73D
:1010D00087FA401B022801D9032032E799480068AB
:1010E00000F480600028F2D1207800F00800082881
:1010F00036D16069D0B193489430006840F0010067
:101100009049C1F89400FFF76BFA054606E0FFF737
:1011100067FA401B022801D9032012E7894894305E
:10112000006800F002000028F1D019E085489430F2
:10113000006820F001008349C1F89400FFF750FADD
:10114000054606E0FFF74CFA401B022801D90320B0
:10115000F7E67C489430006800F002000028F1D1E6
:10116000207800F00400042872D14FF00008754880
:10117000806D012121EA107078B100BF7148806D47
:1011800040F080506F4988650846806D00F08050BF
:10119000009000BF00BF4FF001086C48006800F4E9
:1011A0008070B0B96948006840F480706749086091
:1011B000FFF716FA054606E0FFF712FA401B022871
:1011C00001D90320BDE66148006800F48070002862
:1011D000F2D000BFA068012808D15A4890300068BA
:1011E00040F001005749C1F8900021E0A0680528AF
:1011F0000FD154489030006840F004005149C1F8C4
:1012000090000846D0F8900040F00100C1F890002E
:101210000EE04C489030006820F001004949C1F8C8
:1012200090000846D0F8900020F00400C1F890002B
:1012300000BFA068A8B1FFF7D3F9054609E0FFF7A2
:10124000CFF9401B41F28831884202D9032078E669
:1012500025E03C489030006800F002000028EED005
:1012600013E0FFF7BDF9054608E0FFF7B9F9401BA9
:1012700041F28831884201D9032062E6314890303A
:10128000006800F002000028EFD1B8F1010F05D18D
:101290002C48806D20F080502A49886500BF207856
:1012A00000F02000202836D1A069D0B12548983020
:1012B000006840F001002349C1F89800FFF790F959
:1012C000054606E0FFF78CF9401B022801D90320F0
:1012D00037E61C489830006800F002000028F1D082
:1012E00019E018489830006820F001001549C1F84D
:1012F0009800FFF775F9054606E0FFF771F9401B06
:10130000022801D903201CE60E489830006800F03E
:1013100002000028F1D1E069002860D00948806807
:1013200000F00C000C287AD0E069022858D105485A
:10133000006820F0807003490860FFF751F9054606
:101340000DE000000010024010000020007000407E
:10135000FFF746F9401B022801D90320F1E54A486E
:10136000006800F000700028F2D1D4E90810401E97
:1013700041EA0011A06A41EA0021208E0122C2EB5D
:10138000500041EA40513420005DC2EB500041EA78
:1013900040612C20005D41EAC0603B49C9683B4A7E
:1013A000114008433849C8600846006840F0807022
:1013B00008600846C06840F08070C860FFF710F908
:1013C000054606E0FFF70CF9401B022801D903206F
:1013D000B7E52D48006800F000700028F2D051E019
:1013E0002948006820F0807027490860FFF7F8F866
:1013F000054606E0FFF7F4F8401B022801D9032058
:101400009FE52148006800F000700028F2D11E48D6
:10141000C0681F4908401C49C86033E0FFE7E06925
:10142000012800D18DE51848C66806F00301206A3E
:10143000814225D106F0F001606A401EB1EB001F29
:101440001ED106F4FE41A06AB1EB002F18D106F0C0
:1014500078412C20005DB1EBC06F11D106F4C001C2
:10146000208E0122C2EB5000B1EB405F08D106F0A4
:10147000C0613420005DC2EB5000B1EB406F01D081
:1014800001205EE500205CE5001002400C809F0119
:10149000FCFFEEFE70B504462546681EB0F1807F65
:1014A00001D301200FE0681E4FF0E02148610F21B9
:1014B0004FF0FF3001F0E4FB00204FF0E0218861A5
:1014C00007200861002070BD014600BF91F884002C
:1014D000012801D102207047012081F8840000BF5B
:1014E0002420C1F88800086802680868006820F0B5
:1014F00001000B68186022F000520020486608685E
:1015000002602020C1F8880000BF002081F884001C
:1015100000BF00BFDFE77047704770B504460D4657
:1015200000BF94F88400012801D1022070BD012081
:1015300084F8840000BF2420C4F88800206806686E
:101540002068006820F00100216808602068806839
:1015500020F06060284321688860204600F032FC5B
:10156000206806602020C4F8880000BF002084F8AE
:10157000840000BF00BFD9E770B504460D4600BF28
:1015800094F88400012801D1022070BD012084F864
:10159000840000BF2420C4F8880020680668206802
:1015A000006820F00100216808602068806820F051
:1015B0006040284321688860204600F003FC2068D2
:1015C00006602020C4F8880000BF002084F8840052
:1015D00000BF00BFD9E77047704770472DE9F0475B
:1015E00004462068C569206806682068876840F658
:1015F0000F0005EA0009B9F1000F0FD105F0200036
:1016000060B106F0200010B907F0805030B1606F73
:1016100010B12046616F8847BDE8F087B9F1000F2F
:101620007ED0D448384018B9D34830400028F7D08D
:1016300005F0010058B106F4807040B10120216826
:101640000862D4F8900040F00100C4F8900005F062
:10165000020058B107F0010040B102202168086281
:10166000D4F8900040F00400C4F8900005F00400A5
:1016700058B107F0010040B1042021680862D4F895
:10168000900040F00200C4F8900005F0080070B12E
:1016900006F0200010B9B748384040B10820216852
:1016A0000862D4F8900040F00800C4F8900005F4F7
:1016B000006060B106F0806048B14FF400602168BE
:1016C0000862D4F8900040F02000C4F89000D4F8EC
:1016D0009000002852D005F0200050B106F0200004
:1016E00010B907F0805020B1606F10B12046616FD3
:1016F0008847D4F890A02068806800F04000402817
:1017000002D00AF0280070B3204600F085FC206863
:10171000806800F04000402826D100BF00BF00E0F4
:101720002DE02168083151E8001F21F040002168B8
:10173000083141E80002002AF1D100BFD4F880004E
:1017400068B18E48D4F880108863D4F88000FEF722
:1017500016FE98B1D4F88000816B88470EE02046D1
:10176000FFF73BFF0AE003E02046FFF736FF05E006
:101770002046FFF732FF0020C4F890004CE7E06EEF
:10178000012865D105F01000002861D006F0100096
:101790000028FAD01020216808622068806800F0D4
:1017A0004000402865D1D4F88000006840681FFAE6
:1017B00080F8B8F1000F5BD0B4F85C00404557DD0D
:1017C000A4F85E80D4F880000068006800F0200073
:1017D000E8BB00BF00BF216851E8001F21F4807002
:1017E000226842E800010029F5D100BF00BF00BF18
:1017F0002168083151E8001F21F0010021680831FB
:1018000041E80002002AF3D100BF00BF00BF2168F9
:10181000083151E8001F21F040002168083141E8FB
:101820000002002AF3D100BF2020C4F88C00002061
:10183000E06600BF00BF216851E8001F21F01000E2
:10184000226842E800010029F5D100BF01E004E070
:1018500053E0D4F88000FEF757FD02202067B4F86B
:101860005C00B4F85E20801A81B22046FFF753FE78
:10187000D2E634F85C0F6188401A1FFA80F860885D
:101880005C3CC8B3B8F1000F36D000BF00BF216880
:1018900051E8001F21F49070226842E800010029FD
:1018A000F5D100BF00BF00BF2168083151E8001F1B
:1018B000304AD24301EA02002168083141E80002BF
:1018C000002AF1D100BF2020C4F88C000020E0667F
:1018D000606700BF00BF216851E8001F21F01000C1
:1018E000226842E800010029F5D100BF02202067EC
:1018F00041462046FFF70FFE8EE605F4801050B1FA
:1019000007F4800038B14FF4801021680862204647
:10191000FFF762FE80E605F0800058B106F0800017
:1019200010B907F4000028B1A06F10B12046A16FD4
:10193000884771E605F0400030B106F0400018B16C
:10194000204600F09FFB67E605F4000030B106F08A
:10195000804018B12046FFF73EFE5DE605F080703E
:1019600030B106F0004018B12046FFF7D5FD53E630
:1019700000BF51E60100001020010004FF1F000815
:1019800010B504460CB9012010BDA06900B100E0FB
:1019900000BFD4F8880028B9002084F884002046CD
:1019A00000F02AF82420C4F888002068006820F09D
:1019B000010021680860A06A10B1204600F02EFAEC
:1019C000204600F075FE012800D1DDE72068406860
:1019D00020F49040216848602068806820F02A0048
:1019E000216888602068006840F001002168086074
:1019F000204600F08FFAC7E710B598B004461421CE
:101A000013A8FEF73FFC442102A8FEF73BFC214946
:101A1000206888423BD1012002900020039002A858
:101A2000FEF74AFF08B1FEF76CFC00BF1A48006ED3
:101A300040F48040184908660846006E00F4804073
:101A4000019000BF00BF00BF0846C06C40F001001D
:101A5000C8640846C06C00F00100019000BF00BFE0
:101A60004FF4C0601390022014900020159016903F
:101A70000720179013A94FF09040FEF7CBFC0022EF
:101A800011462520FEF730FE2520FEF719FE18B07E
:101A900010BD0000003801400010024070B504463F
:101AA0000D461646D4F88C00202821D105B10EB978
:101AB000012070BD0020E0660E492068884211D0E8
:101AC0002068406800F4000060B100BF00BF2168DA
:101AD00051E8001F41F08060226842E800010029BF
:101AE000F5D100BF32462946204600F0A3FFE0E7CB
:101AF0000220DEE70080004010B50446104920684F
:101B0000096888421AD10F4801780F480288008876
:101B1000401C0D4B18800D4881540A4800780A2853
:101B200007D101200A490870002008491A46128886
:101B30008854012203490248FFF7B0FF10BD00009E
:101B40001C01002000000020020000201C000020DA
:101B5000040000202DE9F84F04460E46174699462A
:101B6000D4F88800202854D106B117B90120BDE867
:101B7000F88F00205434E06321206063FEF730FDCD
:101B8000824627806780543CA068B0F5805F04D10E
:101B9000206910B90025B04602E035464FF0000834
:101BA00020E05346002280212046CDF8009000F02E
:101BB000EFFF20B12020C4F888000320D7E745B903
:101BC000B8F80000C0F308002168886208F1020834
:101BD00003E02878216888626D1CB4F85600401E26
:101BE000A4F85600B4F856000028DAD15346002273
:101BF00040212046CDF8009000F0CAFF20B12020FF
:101C0000C4F888000320B2E72020C4F88800002030
:101C1000ADE70220ABE7704700BFFEE708B500BFA5
:101C20000D48C06C40F020000B49C8640846C06CE9
:101C300000F02000009000BF00BF00BF0846C06C4D
:101C400040F00100C8640846C06C00F0010000903C
:101C500000BF00BF08BD00000010024010B51848CA
:101C6000184908604FF4E130486000211548816050
:101C7000C16001610C21416100218161C16101628A
:101C8000416200200F4988620846FFF779FE08B1DB
:101C9000FEF737FB00210B48FFF76EFC08B1FEF79B
:101CA00030FB00210748FFF738FC08B1FEF729FB9D
:101CB0000448FFF709FC08B1FEF723FB10BD000044
:101CC000003801401C01002000BFFEE700BFFEE716
:101CD0007047000070B5164DED6805F00304144D13
:101CE000ED68C5F303156B1C022C0CD0032C09D135
:101CF000104DB5FBF3F50E4EF668C6F3062605FB50
:101D000006F10AE000BF0C4DB5FBF3F5084EF6688E
:101D1000C6F3062605FB06F100BF00BF044DED68C3
:101D2000C5F341656D1C6A00B1FBF2F070BD0000A7
:101D30000010024000366E010024F400704710B518
:101D4000FEF754FC10BD00B593B0382105A8FEF78E
:101D500099FA14216846FEF795FA4FF40070FEF7E1
:101D600015FD012005900004069002200C9003212F
:101D70000D910E9114210F91022110911191129148
:101D800005A8FFF7D9F808B1FEF7BBFA0F200090BD
:101D900003200190002002900390049002216846E5
:101DA000FEF742FF08B1FEF7ACFA13B000BD000029
:101DB0000348006840F47000014908607047000063
:101DC00088ED00E070B5456E2DB90125A0F86A5088
:101DD000A0F868501CE0082308240568AD68C5F326
:101DE00042610568AD686A0F0A4DAD5C15FB04F5EC
:101DF000094EB65C95FBF6F5A0F86A50054D6D5C92
:101E000015FB03F5044E765C95FBF6F5A0F86850DB
:101E100070BD0000342E00083C2E000890F82810F9
:101E200001F00801082907D10168496821F400413F
:101E3000826B11430268516090F8281001F0010193
:101E400039B10168496821F40031C26A114302685E
:101E5000516090F8281001F00201022907D10168B1
:101E6000496821F48031026B11430268516090F897
:101E7000281001F00401042907D10168496821F400
:101E80008021426B11430268516090F8281001F0E4
:101E90001001102907D10168896821F48051C26BB3
:101EA00011430268916090F8281001F02001202968
:101EB00007D10168896821F40051026C114302685E
:101EC000916090F8281001F04001402913D1016879
:101ED000496821F48011426C114302685160416CE1
:101EE000B1F5801F07D10168496821F4C001826CF7
:101EF00011430268516090F8281001F08001802998
:101F000007D10168496821F40021C26C11430268BD
:101F10005160704738B504460020C4F89000FEF7C1
:101F20005FFB05462068006800F00800082821D102
:101F30006FF07E402B4600224FF4001100902046A7
:101F400000F026FEB0B100BF00BF216851E8001FBD
:101F500021F08000226842E800010029F5D100BF8D
:101F60002020C4F8880000BF002084F8840000BF4F
:101F7000032038BD2068006800F00400042830D138
:101F80006FF07E402B4600224FF4800100902046E7
:101F900000F0FEFD28B300BF00BF216851E8001F1C
:101FA00021F49070226842E800010029F5D100BFB9
:101FB00000BF00BF2168083151E8001F21F0010077
:101FC0002168083141E80002002AF3D100BF202037
:101FD000C4F88C0000BF002084F8840000BF0320F8
:101FE000C7E72020C4F88800C4F88C000020E06611
:101FF000206700BF84F8840000BF00BFB9E770B558
:102000000546AC6A0020A4F85E00A4F856002046FD
:10201000FFF7E3FA70BD000000BF00BF026852E89E
:10202000002F22F49071036843E80012002AF5D1D2
:1020300000BF00BF00BF0268083252E8002F104BFB
:1020400002EA03010268083242E80013002BF2D1D1
:1020500000BFC16E01290CD100BF00BF026852E869
:10206000002F22F01001036843E80012002AF5D186
:1020700000BF2021C0F88C100021C1664167704765
:10208000FEFFFFEF10B5044600BF00BF216851E816
:10209000001F21F04000226842E800010029F5D12C
:1020A00000BF2020C4F888000020A0672046FFF76A
:1020B000B2FD10BD2DE9F0410446B4F86070D4F8CB
:1020C0008C0022286ED12068406A86B2A56D06EA8F
:1020D00007002880A06D801CA065B4F85E00401E3B
:1020E000A4F85E00B4F85E00002861D100BF00BF14
:1020F000216851E8001F21F49070226842E8000135
:102100000029F5D100BF00BF00BF2168083151E8A8
:10211000001F21F001002168083141E80002002A77
:10212000F3D100BF2020C4F88C0000206067206736
:1021300020492068884211D02068406800F40000DF
:1021400060B100BF00BF216851E8001F21F080602E
:10215000226842E800010029F5D100BFE06E0128A5
:102160001CD10020E06600BF00BF216851E8001FBD
:1021700021F01000226842E800010029F5D100BFDB
:102180002068C069C0F3001010B1102021680862F7
:10219000B4F85C102046FFF7BEF909E02046FFF7CF
:1021A000ABFC05E02068806940F008002168886188
:1021B000BDE8F081008000402DE9F84F0446B4F8F6
:1021C00060B02068C5692068006800902068D0F879
:1021D00008A0D4F88C0022287ED1B4F86890ADE035
:1021E0002068406A1FFA80F8A76D08EA0B00388063
:1021F000A06D801CA065B4F85E00401EA4F85E00CF
:102200002068C56905F00700B0B305F0010060B1B2
:10221000009800F4807040B1012021680862D4F871
:10222000900040F00100C4F8900005F0020058B1A1
:102230000AF0010040B1022021680862D4F8900041
:1022400040F00400C4F8900005F0040058B10AF012
:10225000010040B1042021680862D4F8900040F0E9
:102260000200C4F89000D4F8900028B12046FFF78F
:10227000B4F90020C4F89000B4F85E0000285DD1E5
:1022800000BF00BF216851E8001F21F48070226860
:1022900042E800010029F5D100BF00BF00BF21685E
:1022A000083151E8001F404A01EA02002168083164
:1022B00041E80002002AF2D100BF2020C4F88C00BF
:1022C00000206067206739492068884213D0206861
:1022D000406800F4000000E05DE060B100BF00BFB6
:1022E000216851E8001F21F08060226842E8000167
:1022F0000029F5D100BFE06E01281CD10020E06666
:1023000000BF00BF216851E8001F21F010002268C3
:1023100042E800010029F5D100BF2068C069C0F380
:10232000001010B1102021680862B4F85C1020463B
:10233000FFF7F1F802E02046FFF7DEFBB9F1000FEE
:1023400004D005F0200000287FF44AAFB4F85E60A6
:1023500006B3B4F86800B04223DD00BF00BF2168B7
:10236000083151E8001F21F080502168083141E810
:102370000002002AF3D100BF0D48606700BF00BF14
:10238000216851E8001F41F02000226842E8000166
:102390000029F5D105E02068806940F00800216837
:1023A0008861BDE8F88F0000FEFFFFEF008000406D
:1023B000B520000870B50446B4F86060D4F88C000D
:1023C00022286FD12068406A85B2F0B22840A16D02
:1023D0000870A06D401CA065B4F85E00401EA4F813
:1023E0005E00B4F85E00002862D100BF00BF216823
:1023F00051E8001F21F49070226842E80001002992
:10240000F5D100BF00BF00BF2168083151E8001FAF
:1024100021F001002168083141E80002002AF3D1CF
:1024200000BF2020C4F88C0000206067206721498D
:102430002068884211D02068406800F4000060B134
:1024400000BF00BF216851E8001F21F080602268B2
:1024500042E800010029F5D100BFE06E01281CD13F
:102460000020E06600BF00BF216851E8001F21F096
:102470001000226842E800010029F5D100BF206861
:10248000C069C0F3001010B1102021680862B4F8D0
:102490005C102046FFF73FF80AE02046FFF72CFBD0
:1024A00006E0FFE72068806940F008002168886145
:1024B00070BD0000008000402DE9F05F0446B4F8D4
:1024C00060A02068C5692068D0F800B02068D0F806
:1024D0000890D4F88C0022287ED1B4F86880ACE053
:1024E0002068406A87B20AF0FF003840A16D08708A
:1024F000A06D401CA065B4F85E00401EA4F85E000C
:102500002068C56905F00700A8B305F0010058B1BF
:102510000BF4807040B1012021680862D4F890006B
:1025200040F00100C4F8900005F0020058B109F035
:10253000010040B1022021680862D4F8900040F008
:102540000400C4F8900005F0040058B109F001003F
:1025500040B1042021680862D4F8900040F00200E5
:10256000C4F89000D4F8900028B12046FFF735F861
:102570000020C4F89000B4F85E0000285DD100BFD0
:1025800000BF216851E8001F21F48070226842E8F2
:1025900000010029F5D100BF00BF00BF216808314C
:1025A00051E8001F3F4A01EA02002168083141E872
:1025B0000002002AF2D100BF2020C4F88C000020C5
:1025C0006067206738492068884213D020684068D7
:1025D00000F4000070B100E05CE000BF00BF2168C3
:1025E00051E8001F21F08060226842E800010029C4
:1025F000F5D100BFE06E01281CD10020E06600BFCD
:1026000000BF216851E8001F21F01000226842E855
:1026100000010029F5D100BF2068C069C0F3001097
:1026200010B1102021680862B4F85C102046FEF753
:1026300072FF02E02046FFF75FFAB8F1000F04D006
:1026400005F0200000287FF44BAFB4F85E6006B3BD
:10265000B4F86800B04223DD00BF00BF2168083134
:1026600051E8001F21F080502168083141E8000244
:10267000002AF3D100BF0D48606700BF00BF21688A
:1026800051E8001F41F02000226842E800010029C3
:10269000F5D105E02068806940F008002168886174
:1026A000BDE8F09FFEFFFFEF00800040B52300086B
:1026B0002DE9FE4F044600200290D449206888424C
:1026C00000D100E000BF2169A068084361690843A8
:1026D000E16940EA010820680068CD49084040EA05
:1026E0000800216808602068406820F44050E168D4
:1026F000084321684860D4F81880C449206888429B
:1027000002D0206A40EA080820688068C149084071
:1027100040EA0800216888602068C06A20F00F0045
:10272000616A08432168C86200BFBB4920688842CB
:1027300016D1BA48006800F0030030B1012808D073
:10274000022804D0032808D105E0012507E002256E
:1027500005E0042503E0082501E0102500BF6FE037
:10276000AF492068884216D1AC48006800F00C00E0
:1027700030B1042808D0082804D00C2808D105E07E
:10278000002507E0022505E0042503E0082501E017
:10279000102500BF54E0A3492068884216D19F4805
:1027A000006800F0300030B1102808D0202804D094
:1027B000302808D105E0002507E0022505E00425C2
:1027C00003E0082501E0102500BF39E096492068A4
:1027D000884216D19148006800F0C00030B140280E
:1027E00008D0802804D0C02808D105E0002507E0E3
:1027F000022505E0042503E0082501E0102500BFBF
:102800001EE082492068884219D18448006800F49B
:10281000406048B1B0F5806F0AD0B0F5006F05D0C8
:10282000B0F5406F08D105E0002507E0022505E07E
:10283000042503E0082501E0102500BF00E0102575
:1028400000BF72492068884259D135B1022D08D0A5
:10285000042D08D0082D0DD109E0FEF7FDFA06463B
:102860000CE0724E0AE0FEF71BFB064606E04FF452
:10287000004603E000260120029000BF00BF002EAA
:1028800010D06B49606A31F81000B6FBF0F960684F
:1028900000EB4000484503D860680003484502D279
:1028A00001200290A6E06249606A31F810C06246D9
:1028B000002330461946FDF7ADFC4FF4807C002222
:1028C000A0FB0C3B01FB0CB100FB0211606840084F
:1028D00018185141CDE90001D4F804C06246002324
:1028E000FDF798FC0746B7F5407F05D3B7F5801F85
:1028F00002D22068C7607DE0012002907AE0E069A2
:10290000B0F5004F3FD1092D17D2DFE805F00509DA
:102910000D160F1616161300FEF79EFA064610E067
:10292000FEF7ACFA06460CE0404E0AE0FEF7B8FAB5
:10293000064606E04FF4004603E000260120029020
:1029400000BF00BF86B33A49606A31F81000B6FB99
:10295000F0F04000616800EB5100B0FBF1F7102F80
:102960000ED3B7F5803F0BD24FF6F07007EA000A9E
:10297000C7F342004AEA000A2068C0F80CA039E018
:102980000120029036E0092D18D2DFE805F0050994
:102990000E17101717171400FEF75EFA064611E01F
:1029A000FEF76CFA06460DE024E0204E0AE0FEF742
:1029B00077FA064606E04FF4004603E000260120C1
:1029C000029000BF00BFAEB11949606A31F8100033
:1029D000B6FBF0F0616800EB5100B0FBF1F7102F8F
:1029E00006D3B7F5803F03D2B8B22168C86001E0D2
:1029F000012002900120A4F86A00A4F868000020D9
:102A00006067A0670298BDE8FE8F0000008000406C
:102A1000F369FFCFFFF4FF11003801408810024036
:102A20000044004000480040004C00400024F400F6
:102A30001C2E000830B503469965A3F85C20A3F866
:102A40005E200020586700BF9868B0F5805F0AD10B
:102A5000186920B940F2FF10A3F8600020E0FF20C1
:102A6000A3F860001CE0986848B9186918B9FF20FD
:102A7000A3F8600014E07F20A3F8600010E09868DD
:102A8000B0F1805F09D1186918B97F20A3F8600000
:102A900006E03F20A3F8600002E00020A3F86000F9
:102AA00000BF0020C3F890002220C3F88C0000BFB4
:102AB00000BF1C68083454E8004F44F001001C6853
:102AC000083444E80005002DF3D100BF586EB0F182
:102AD000005F2CD1B3F86800904228DC9868B0F50C
:102AE000805F04D1186910B92548586701E025486E
:102AF0005867186960B100BF00BF1C6854E8004FF8
:102B000044F480701D6845E80004002CF5D100BF36
:102B100000BF00BF1C68083454E8004F44F08050E8
:102B20001C68083444E80005002DF3D126E09868BD
:102B3000B0F5805F04D1186910B91348586701E0F7
:102B400012485867186960B100BF00BF1C6854E89C
:102B5000004F44F490701D6845E80004002CF5D146
:102B60000CE000BF00BF1C6854E8004F44F0200098
:102B70001D6845E80004002CF5D100BF002030BDE1
:102B8000B9210008B9240008B5200008B5230008C1
:102B90002DE9F04104460D4617469846069E41E051
:102BA000701C00283ED0FDF71BFDA0EB0800B042D2
:102BB00000D816B90320BDE8F0812068006800F055
:102BC000040070B3802D2DD0402D2BD02068C0691B
:102BD000C0F3C00078B10820216808622046FFF7E2
:102BE0001BFA0820C4F8900000BF002084F884007D
:102BF00000BF0120DFE72068C069C0F3C02080B1BA
:102C00004FF40060216808622046FFF705FA202093
:102C1000C4F8900000BF002084F8840000BF0320A7
:102C2000C9E7FFE72068C0692840A84201D1012018
:102C300000E00020B842B3D00020BCE710B5024845
:102C4000FEF7CCFC10BD00001C01002000BFFEE719
:102C50000FB4054B10B503A9044A029800F033F8ED
:102C600010BC5DF814FB00009D2D0008080000203A
:102C700002480068C0F30220704700000CED00E03D
:102C800010B5002804DB0A07130E054A135406E0AA
:102C90000A07140E034A00F00F031B1FD45410BD83
:102CA00000E400E018ED00E002E008C8121F08C1CF
:102CB000002AFAD170477047002001E001C1121FBD
:102CC000002AFBD170472DE9F84F99469246884675
:102CD0000546002706E025280AD051464A46904777
:102CE0006D1C7F1C28780028F5D13846BDE8F88F88
:102CF000002315F8011F18462E2915D115F8011FBC
:102D000004232A290DD06FF02F022978A1F1300475
:102D1000092C09D800EB800002EB400008446D1C30
:102D2000F3E758F8040B6D1C2A78002ADDD0632ADB
:102D300007D0732A0FD0104651464A4690477F1C51
:102D40002AE018F8042B8DF8002000218DF80110DE
:102D50006E46012103E058F8046B4FF0FF315A072B
:102D60004FF0000401D409E0641C84420BDA8C4269
:102D7000FADB325D002AF7D105E0641C8C42FCDBF3
:102D8000305D0028F9D1274404E016F8010B5146C4
:102D90004A469047641EF8D26D1CA3E713B50C4653
:102DA00001231A4669460248FEF7D4FE00981CBD6E
:102DB0001C010020FDF726FCFEF7C5FFFEF72EFFE5
:102DC000FEF74CFF012209490948FEF767FE09A0FA
:102DD000FFF73EFF08E00948007828B1084909A03C
:102DE000FFF736FF00F010F8F5E7000000000020C4
:102DF0001C01002052454144590D0A0004000020E6
:102E00001C000020257300000020024908700249C0
:102E1000088070470400002002000020010002002A
:102E20000400060008000A000C001000200040000A
:102E300080000001010101030701000008040204F1
:102E4000080101010000000000000000010203046D
:102E50000607080900000000010203047C2E000898
:102E6000000000201C000000A82C0008982E00087C
:102E70001C00002094050000B82C00080000000091
:102E80000000000000000000000000001000000032
:082E9000010000000024F40021
:04000005080001D915
:00000001FF
