:020000040800F2
:1000000068070020F101000839460008753C000827
:10001000354600082509000855600008000000006A
:10002000000000000000000000000000C5490008BA
:1000300029090008000000003B460008C7490008E5
:100040000B0200080B0200080B0200080B0200085C
:100050000B0200080B0200080B0200080B0200084C
:100060000B0200080B0200080B0200080B0200083C
:100070000B0200080B0200080B0200080B0200082C
:100080000B020008000000000B0200080B02000831
:100090000B0200080B0200080B0200080B0200080C
:1000A0000B0200080B0200080B0200080B020008FC
:1000B000594A0008694A0008794A00080B020008FA
:1000C0000B0200080B0200080B0200080B020008DC
:1000D0000B020008456000080B0200080B02000834
:1000E0000B0200080B0200080B0200080B020008BC
:1000F0000B0200080B0200080B02000800000000C1
:10010000000000000B020008000000000B020008C5
:100110000B020008000000000B0200080B020008A0
:100120000B0200080B0200080B0200080B0200087B
:100130000B02000800000000000000000B02000895
:100140000B0200080B020008000000000000000085
:10015000000000000000000000000000000000009F
:100160000000000000000000000000000B0200087A
:100170000B0200080000000000000000000000006A
:10018000000000000B02000800000000000000005A
:10019000000000000000000000000000000000005F
:1001A00000000000000000000B0200080B02000825
:1001B0000B0200080B0200080B0200080000000000
:1001C000000000000B02000800000000000000001A
:1001D0000B0200080B020008DFF810D000F02CFB27
:1001E000004800479D6D0008AFF3008068070020BD
:1001F0000648804706480047FEE7FEE7FEE7FEE7C1
:10020000FEE7FEE7FEE7FEE7FEE7FEE73D4A000801
:10021000D90100082DE9F05F0546002092469B4673
:1002200088460646814640241BE02846414647460C
:10023000224600F01BFA53465A46C01A914110D389
:1002400011461846224600F002FA2D1A67EB010803
:100250004F4622460120002100F0F9F917EB000972
:100260004E41201EA4F10104DFDC484631462A46F7
:100270004346BDE8F09FD2B201E000F8012B491ED1
:10028000FBD270470022F6E710B513460A46044633
:100290001946FFF7F0FF204610BD2DE9FE4F8046BE
:1002A00081EA0300C00F0C46009021F0004123F0CA
:1002B0000045B8EB0200A94105D2404621469046D0
:1002C0001C460B46024623F00040104347D0270D42
:1002D000C7F30A00C3F30A510290401A0190402864
:1002E0006BDAC3F3130040F4801B0098924620B1F0
:1002F0000023D2EB030A63EB0B0B01985946C0F1C4
:100300004002504600F0A3F906460D4650465946B5
:10031000019A00F0BBF910EB08006141002487EA64
:10032000115284EAE7731A4340D0009A62B3019AEB
:10033000012A4FEA075215DC001B61EB02014FF066
:10034000004202EA0752CDE90042001C41F580114B
:1003500032462B4600F0F2F903B0BDE8F08F40467C
:100360002146F9E7001B61EB0201001C41F58013F7
:1003700000185B412018A2F5001747EB030140EA83
:10038000D570B6196D4111E06D084FEA360645EAA1
:10039000C0754FEA0752001B61EB0201001C41F5DA
:1003A000801149084FEA30000019514132462B466E
:1003B00003B0BDE8F04F00F0B2B900980122400050
:1003C0000023D0EB020263EBE073009821464FEA72
:1003D000E074B8EB000061EB0401E9E783F000434F
:1003E0005BE781F0004158E72DE9FE4F81EA030405
:1003F00004F0004421F0004100944FF0000B23F082
:10040000004350EA01045ED052EA03045BD0C3F318
:100410000A54C1F30A552C44A4F2F3340194A0FB0E
:100420000254C1F3130141F48011C3F3130343F4E5
:10043000801301FB024400FB034E840A970A44EA3E
:10044000815447EA8357A4FB076802958D0A05FB90
:1004500007854FEA932C04FB0C542705029D4FEAB5
:10046000065847EA1637B5EB08056EEB070C870E02
:10047000920E47EA811742EA8312A7FB0201B6EB0C
:100480000B0164EB00042B0D43EA0C335E1844EBC4
:100490001C50DA465146E7FB0201C5F313044FEA4C
:1004A0000B3343EA14534FEA0432019C43EA060338
:1004B000A4F10C040294009CCDE900B400F03EF9D4
:1004C00003B0BDE8F08F00200146F9E72DE9F04DBB
:1004D00081EA030404F0004B21F0004514464FF07C
:1004E000000A23F0004150EA050220D054EA01023C
:1004F0001DD0C5F30A570246C5F31303C1F3130019
:10050000C1F30A5640F4801543F48013A7EB0608A4
:10051000101BD64608F2FD3873EB050002D308F134
:10052000010801E092185B41B8F1000F03DA0020E6
:100530000146BDE8F08D00204FF480110646844648
:100540000EE0171B73EB050705D3121B63EB0503C6
:1005500006434CEA010C49084FEA300092185B410F
:1005600050EA0107EDD152EA030012D082EA0400FA
:1005700083EA0501084305D0101BAB4106D20122D6
:10058000002306E000224FF0004302E06FF001027A
:1005900053101AEB06004CEB085110EB0A0041EB2C
:1005A0000B01BDE8F04D00F0BAB80EB540F2334192
:1005B00002910021CDE900110A460B4600F0BEF879
:1005C00003B000BD00F0004230F000400AD0C10D81
:1005D00001F56071C0F3160042EA0151C2084007FC
:1005E0001143704700200146704701F0004330B4CA
:1005F00021F0004150EA010206D00A0DA2F5607216
:10060000C1F31301002A02DC30BC00207047440F04
:1006100044EAC104C100E01830BC00EBC25000F055
:1006200047B830B50B46014600202022012409E0DE
:1006300021FA02F59D4205D303FA02F5491B04FA9B
:1006400002F52844151EA2F10102F1DC30BD202A7A
:1006500004DB203A00FA02F1002070479140C2F119
:10066000200320FA03F3194390407047202A04DB4B
:10067000203A21FA02F00021704721FA02F3D0401B
:10068000C2F120029140084319467047202A06DB38
:10069000CB17203A41FA02F043EAE07306E041FA50
:1006A00002F3D040C2F1200291400843194670473E
:1006B0000029A8BF7047401C490008BF20F0010076
:1006C000704710B4B0FA80FC00FA0CF050EA010454
:1006D00004BF10BC704749B1CCF1200421FA04F4E6
:1006E00011FA0CF118BF012121430843A3EB0C01BF
:1006F000CB1D4FEA00614FEA102042BF002010BC22
:10070000704700EBC35010440029A4BF10BC7047D1
:10071000401C490008BF20F0010010BC704710B514
:10072000141E73F1000408DA401C41F10001921814
:100730005B411A4301D120F0010010BD2DE9F04DBD
:1007400092469B4611B1B1FA81F202E0B0FA80F212
:1007500020329046FFF77BFF04460F4640EA0A002E
:1007600041EA0B0153465A46084313D0114653EA57
:10077000010019D0C8F140025046FFF777FF054647
:100780000E46504659464246FFF761FF084305D0E2
:10079000012004E020463946BDE8F08D00200543E5
:1007A00046EAE0762C4337430A986305E40AA0EB57
:1007B00008000022FD0A44EA47540A3002D500200E
:1007C0000146E9E7010510196941DDE9084500190D
:1007D0006941BDE8F04DA2E7C1F30A52C1F313012C
:1007E00040F2FF3341F480119A4202DA00200146C0
:1007F000704740F233439A42A2F2334202DC524243
:10080000FFF734BFFFF723BF30B5041E71F10004BA
:1008100004DB4FF00044404264EB0101141E73F10D
:10082000000405DB1C464FF00043524263EB040317
:10083000994208BF904230BD064C074D06E0E06883
:1008400040F0010394E8070098471034AC42F6D317
:10085000FFF7C6FCC8820008E882000838B50446E5
:1008600000200090206803F074FC00284FD120681D
:1008700080682849084048B1E06D40F01000E0650C
:10088000206E40F001002066012038BD206803F092
:1008900045FC00BF2048806800F0E07000F40000D4
:1008A00080B11E4800681E49B0FBF1F0401C00EB0F
:1008B00040008000009002E00098401E00900098E8
:1008C0000028F9D100F0F8FE05461AE0206803F090
:1008D00040FC10B9206803F021FC00F0EDFE401B45
:1008E00002280ED92068006800F0010048B9E06DC8
:1008F00040F01000E065206E40F00100206601200D
:10090000C3E72068006800F001000028DED0002066
:10091000BBE700003F000080000300504C000020B7
:10092000400D030000BFFEE77047002109E00022F0
:1009300001E0531C9AB240F6B8339A42F9DB4B1CE3
:1009400099B28142F3DB7047704700002DE9F84F00
:1009500005460C464FF0000A00200090FE49E06872
:10096000884200D000E000BF00BF95F85800012881
:1009700002D10220BDE8F88F012085F8580000BFA1
:10098000286803F0F0FB00287DD12968D4E9002015
:1009900001F1300CC0F3012B0CEB8B03D3F800C03A
:1009A00000F01F0E4FF01F0B0BFA0EFB2CEA0B0C86
:1009B00000F01F0BC2F3846E0EFA0BFE4CEA0E0C15
:1009C000C3F800C000BF286803F0CDFB814628684B
:1009D00003F0BAFB8046B9F1000F64D1B8F1000F03
:1009E000FBD1A068B0F1004F0AD12168002228682D
:1009F00003F0D0FB4FF00041286803F0F0FB08E063
:100A0000A2682168286803F0C5FB0021286803F06C
:100A1000E6FB60692968C968C1F3C101490000FAB1
:100A200001F7206904283FD028682268216900F175
:100A3000600C0CEB8103D3F800C0DFF820B30CEAA4
:100A40000B0C02F0F84B4BF0004B4BEA070B4CEA57
:100A50000B0CC3F800C000BF2868A269216900F12F
:100A6000600C0CEB8103D3F800C02CF0807C4CEAC6
:100A7000020CC3F800C000BF2868227F2169012A48
:100A800002D1520601E0C6E10022134600F1600CDB
:100A90000CEB8102D2F800C02CF0007C4CEA030C75
:100AA000C2F800C000BFA7E00021286803F043FBA4
:100AB000C0F3120030B90021286803F03CFBC0F3FA
:100AC000846007E00021286803F035FB90FAA0F06D
:100AD000B0FA80F02168C1F3120119B92168C1F39D
:100AE000846104E0216891FAA1F1B1FA81F18842B0
:100AF00004D100221146286803F066FB0121286812
:100B000003F019FBC0F3120030B90121286803F08B
:100B100012FBC0F3846007E00121286803F00BFB9F
:100B200090FAA0F0B0FA80F02168C1F3120119B96F
:100B30002168C1F3846104E0216891FAA1F1B1FA5E
:100B400081F1884204D100220121286803F03CFB96
:100B50000221286803F0EFFAC0F3120030B9022135
:100B6000286803F0E8FAC0F3846007E002212868EF
:100B700003F0E1FA90FAA0F0B0FA80F02168C1F336
:100B8000120119B92168C1F3846104E0216891FA66
:100B9000A1F1B1FA81F1884204D100220221286832
:100BA00003F012FB0321286803F0C5FAC0F312001A
:100BB00030B90321286803F0BEFAC0F3846007E06F
:100BC0000321286803F0B7FA90FAA0F0B0FA80F099
:100BD0002168C1F3120119B92168C1F3846104E0ED
:100BE000216891FAA1F1B1FA81F1884204D1002281
:100BF0000321286803F0E8FA286803F0AAFA00281D
:100C000072D12868E2682168D0F8B030C1F3120CC4
:100C100023EA0C0302F0180BDFF844C12CFA0BFC9A
:100C20000CEA010C43EA0C03C0F8B03000BF4A499B
:100C3000E068884258D12368C3F312031BB92368C4
:100C4000C3F3846304E0236893FAA3F3B3FA83F352
:100C50005B1C03F01F03092B3ED82368C3F3120368
:100C60001BB92368C3F3846304E0236893FAA3F3F6
:100C7000B3FA83F35B1C03F01F034FF0010C0CFA73
:100C800003FC2368C3F312031BB92368C3F3846313
:100C900004E0236893FAA3F3B3FA83F35B1C03F035
:100CA0001F034CEA836C2368C3F312031BB9236848
:100CB000C3F3846304E0236893FAA3F3B3FA83F3E2
:100CC0005B1C03F01F0303EB43034FF0000B4BEAE5
:100CD00003534CEA030347E02368C3F3120323B929
:100CE0002368C3F3846305E043E0236893FAA3F326
:100CF000B3FA83F35B1C03F01F034FF0010C0CFAF3
:100D000003FC2368C3F312031BB92368C3F3846392
:100D100004E0236893FAA3F3B3FA83F35B1C03F0B4
:100D20001F034CEA836C2368C3F312031BB92368C7
:100D3000C3F3846304E0236893FAA3F3B3FA83F361
:100D40005B1C03F01F030A3B03EB43034FF0007BE4
:100D50004BEA035306E0000000007F4000F0FF0371
:100D6000FFFF07004CEA03031946A268286803F056
:100D700011FA2F492068084050B300BF2D48806801
:100D800000F0E07600BF2C492068884203D02B4950
:100D9000206888421DD106F40000D0B92868B0F15F
:100DA000A04F3ED146F40001224803F007FA244840
:100DB00000682449B0FBF1F0401C00EB40008000CB
:100DC000009002E00098401E009000980028F9D1A1
:100DD00027E01D49206888420CD106F0807048B990
:100DE0001A49286888421CD046F08071114803F0E7
:100DF000E5F916E016492068884212D106F4800011
:100E000078B91249286888420BD046F48001094815
:100E100003F0D4F905E0E86D40F02000E8654FF0FC
:100E2000010A00BF002085F8580000BF5046A1E528
:100E30000000088000030050000021C31000C09093
:100E40004C000020400D0300000052C7000100507C
:100E5000000084CB01460868006C70472DE9F84318
:100E600004464FF000080020009014B90120BDE8AE
:100E7000F883606920B194F82400012800D100BFF4
:100E8000E06D30B9204600F017F90020206684F8A4
:100E9000580020688168C1F3407131B120688168D1
:100EA0007E4A1140816000BF00BF206803F056F900
:100EB000B0B9206881687A4A114041F08051816060
:100EC00000BF784800687849B0FBF1F0401C400052
:100ED000009002E00098401E009000980028F9D190
:100EE000206803F03BF948B9E06D40F01000E06580
:100EF000206E40F0010020664FF00108206803F0EA
:100F000032F90646E06D00F01000002877D1002E7F
:100F1000FCD1E06D20F4807040F00200E0652068B4
:100F200003F017F9B0B94FF0A04003F012F9814671
:100F30005E4803F00EF949EA0009B9F1000F09D142
:100F400060685B49896821F47C110143584A9160CB
:100F500000BF00BF607FE16B41EA4030E1680843B9
:100F6000A168084394F8241040EA014594F824004D
:100F7000012803D1208D401E45EA4045E06A28B192
:100F8000A08D00F47870216B084305432068C06889
:100F90004849084028432168C8602068006920F05B
:100FA0004060616B084321680861206803F0CCF859
:100FB0000746002E50D1EFBB207F002141EA80314F
:100FC00094F8380041EA40052068C06844F2020104
:100FD000884328432168C860206988B12068006977
:100FE00040F48030216808612068D0F8C0006FF3B9
:100FF0000D00216908432168C1F8C0000EE045E0FA
:101000002068006920F48030216808612068D0F8E9
:10101000C0006FF30D002168C1F8C00094F84000D3
:10102000012813D1606C40F00101A06C0843E16C11
:10103000084300E010E0216D08432168096940F28F
:10104000FC72914308432168086105E0206800694B
:1010500020F00100216808616069012809D1206839
:10106000006B20F00F00216A491E084321680863C5
:1010700005E02068006B20F00F0021680863E06D38
:1010800020F0020040F00100E06505E0E06D40F076
:101090001000E0654FF001084046E8E6C0FFFF5F42
:1010A000C0FFFF7F4C000020400D030000010050F6
:1010B000000300500740F0FF10B598B0044614211B
:1010C00013A8FFF7DFF8442102A8FFF7DBF81B495C
:1010D000206888422FD1C00102908003119002A89D
:1010E00000F056FC08B1FFF72FFC00BF1448C06C9D
:1010F00040F400501249C8640846C06C00F4005027
:10110000019000BF00BF00BF0846C06C40F0020065
:10111000C8640846C06C00F00200019000BF00BF28
:101120004FF400401390032014900020159013A951
:10113000044800F0CDF918B010BD000000010050C7
:1011400000100240000400482DE9F04704460F4615
:10115000494802F0EBFF0646A069082801D108259E
:101160001FE01EB1052E01D0092E0DD12068C068E8
:1011700000F0010030B1E06D40F02000E06501209A
:10118000BDE8F08704250CE000BF3B48806800F410
:10119000604028B1E06D40F02000E0650120EFE7FD
:1011A000042500F089FA804617E0781CA8B100F009
:1011B00083FAA0EB0800B84200D877B9206800682D
:1011C000284050B9E06D40F00400E06500BF002009
:1011D00084F8580000BF0320D2E720680068284048
:1011E0000028E2D0E06D40F40070E065206802F075
:1011F000BFFF98B1607F88B92068006800F00800E0
:1012000008280BD1E06D20F48070E065E06D00F4FB
:10121000805018B9E06D40F00100E0651749206882
:10122000884202D14FF0A04000E020682168884247
:1012300004D01EB1052E01D0092E03D12068D0F8AC
:101240000C900AE00D492068884202D14FF0A0407E
:1012500000E020688246DAF80C90082D03D10820BF
:101260002168086005E009F4804010B90C2021686D
:101270000860002084E700000003005000010050D7
:101280002DE9F0410446434802F050FF064620682D
:1012900002F069FF00287AD100BF94F858000128B5
:1012A00002D10220BDE8F081012084F8580000BF7F
:1012B0002046FFF7D3FA0546002D63D1E06D40F6D6
:1012C0000161884340F48070E065334920688842BA
:1012D00002D14FF0A04000E020682168884200D091
:1012E0001EB9E06D20F48010E065E06D00F48050E0
:1012F000B0F5805F04D1206E20F00600206601E08A
:10130000002020661C202168086000BF002084F8AF
:10131000580000BF20492068884202D14FF0A04009
:1013200000E020682168884204D01EB1052E01D05B
:10133000092E0ED12068C06800F0007028B1E06D61
:1013400020F4005040F48050E065206802F01AFF5D
:101350001EE0E06D40F48010E0650F49206888428F
:1013600002D14FF0A04000E020680746F86800F086
:10137000007068B1E06D20F4005040F48050E065EA
:1013800006E004E000BF002084F8580000E00225D9
:10139000284687E700030050000100500146002066
:1013A00091F82520022A03D00422CA63012027E0F5
:1013B0000A68126822F00E020B681A608A6C1268C2
:1013C00022F480728B6C1A600A68126822F00102A3
:1013D0000B681A6091F8442002F01F0301229A4022
:1013E0000B6C5A60D1E913325A604A6D42B14A6DB2
:1013F000126822F480724B6D1A60D1E916325A607D
:10140000012281F8252000BF002281F8242000BF9E
:10141000704770B50446002594F8250002280BD0CB
:101420000420E063012084F8250000BF002084F838
:10143000240000BF012534E02068006820F00E0081
:10144000216808602068006820F0010021680860B9
:10145000A06C006820F48070A16C086094F84400CF
:1014600000F01F0101208840216C4860D4E913106E
:101470004860606D40B1606D006820F48070616DFF
:101480000860D4E916104860012084F8250000BFE8
:10149000002084F8240000BFA06B10B12046A16B8F
:1014A0008847284670BD000070B5044600F004F976
:1014B00006462546681C10B104480068054400BF74
:1014C00000F0FAF8801BA842FAD370BD5800002043
:1014D00078B502460B460021CAE001268E401D6801
:1014E00005EA0604002C73D01D7905F00305012DD3
:1014F00004D01D7905F00305022D13D190684E002C
:101500000325B540A8434E00DD68B54028439060F0
:10151000506801258D40A8431D79C5F300158D4005
:10152000284350601D7905F00305032D09D0D068CC
:101530004E000325B540A8434E009D68B5402843A2
:10154000D0601D7905F00305022D13D1CE0802F1FC
:10155000200555F826004D07EE0E0F25B540A8438F
:101560004E07F60E1D69B5402843CE0802F120054E
:1015700045F8260010684E000325B540A8431D79A4
:1015800005F003054E00B540284310605D6805F482
:101590004035002D6BD000BF384D2D6E45F0010554
:1015A000364E356635462D6E05F00105009500BFB7
:1015B00000BF4FEAB6358E0855F826008D072E0F6E
:1015C0000F25B540A843B2F1904F02D100251AE093
:1015D0004DE02B4DAA4201D1012514E0294DAA422C
:1015E00001D102250FE0284DAA4201D103250AE0CE
:1015F000264DAA4201D1042505E0254DAA4201D17C
:10160000052500E006258E07360FB5402843214DFD
:101610008E0845F82600204D2868A0435D6805F433
:10162000801505B120431C4D28602D1D2868A0435E
:101630005D6805F4001505B12043174D2D1D286088
:10164000154D2D1F2868A0435D6805F4003505B1D0
:101650002043114D2D1F28602D1F2868A0435D6871
:1016600005F4803505B120430B4D083D2860491C29
:101670001D68CD40002D7FF430AF78BD00100240D2
:101680000004004800080048000C00480010004812
:101690000014004808000140080401400246136994
:1016A0000B400BB1012000E0002070470AB18161BE
:1016B00000E0816270470000014800687047000048
:1016C00050000020034800680349096808440149A4
:1016D00008607047500000205800002010B500241A
:1016E000032000F0ABF8002000F008F808B1012456
:1016F00001E000F02FF8204610BD000070B5044650
:10170000002511480068D8B10F4800684FF47A717D
:10171000B1FBF0F00D490968B1FBF0F6304600F07E
:1017200025FF58B9102C07D200222146501E00F088
:1017300047F80748046004E0012502E0012500E0C5
:101740000125284670BD0000580000204C000020F4
:101750005400002008B500BF0E48006E40F00100A4
:101760000C4908660846006E00F00100009000BFBA
:1017700000BF00BF0846806D40F080508865084675
:10178000806D00F08050009000BF00BF00F0F6F8C0
:1017900008BD0000001002400146084600280DDB8D
:1017A00000BF00BF00F01F0301229A4043099B00C5
:1017B00003F1E023C3F8002100BF00BF00BF704762
:1017C0002DE9F05F80460D46164604F069FC074699
:1017D00039462A46334601F00700C0F1070ABAF13C
:1017E000040F02D94FF0040A01E0C0F1070AD14604
:1017F00000F1040ABAF1070F02D24FF0000A01E02B
:10180000A0F1030AD4464FF0010A0AFA09FAAAF134
:10181000010A0AEA020A0AFA0CFA4FF0010B0BFA63
:101820000CFBABF1010B0BEA030B4AEA0B0421465C
:10183000404604F03DFCBDE8F09F000000BF00F012
:101840000702064B19684FF6FF031940044B0B4380
:1018500043EA0221014B196000BF70470CED00E024
:101860000000FA0502468ABB4148006800F4C060E7
:10187000B0F5806F2BD13E488030006820F4807036
:101880003B4BC3F880001846006820F4C06040F469
:10189000007018603748006832235843364BB0FB5D
:1018A000F3F0411C00E0491E3148406900F48060BB
:1018B000B0F5806F01D10029F5D12D48406900F4C1
:1018C0008060B0F5806F51D10320704708E0284850
:1018D0008030006820F48070254BC3F8800045E01C
:1018E000B2F5007F3AD12248006800F4C060B0F53C
:1018F000806F2AD11E488030006840F480701C4BF5
:10190000C3F880001846006820F4C06040F40070FE
:1019100018601848006832235843174BB0FBF3F0A7
:10192000411C00E0491E1248406900F48060B0F597
:10193000806F01D10029F5D10D48406900F4806025
:10194000B0F5806F12D10320BFE7094880300068EE
:1019500040F48070064BC3F8800007E0044800683C
:1019600020F4C06040F48060014B18600020ACE7B8
:10197000007000404C00002040420F000348806887
:1019800040F48040014988607047000000700040CA
:101990002DE9F84304460027B846206800F40020EB
:1019A000B0F5002F73D1B946D348806D00F0805058
:1019B00078B900BFD048806D40F08050CE4988652E
:1019C0000846806D00F08050009000BF00BF4FF0CF
:1019D0000109CA48006840F48070C8490860FFF7F0
:1019E0006BFE064606E0FFF767FE801B022801D962
:1019F000032705E0C148006800F480700028F2D099
:101A000000BF002F46D1BC489030006800F44075FC
:101A1000CDB1206CA84216D0B7489030006820F4B1
:101A20004075B548D0F8900040F48030B249C1F814
:101A300090000846D0F8900020F48030C1F8900063
:101A40000846C0F8905005F00100A0B1FFF734FE41
:101A5000064608E0FFF730FE801B41F288318842DD
:101A600001D9032706E0A4489030006800F0020086
:101A70000028EFD000BF5FB99F489030006820F485
:101A80004070216C08439C49C1F8900003E00CE0D1
:101A9000B84600E0B846B9F1010F05D19648806D0F
:101AA00020F080509449886500BF207800F0010044
:101AB00048B191488830006820F00300616808430D
:101AC0008D49C1F88800207800F00200022809D171
:101AD00089488830006820F00C00A16808438649D6
:101AE000C1F88800207800F00400042809D1824859
:101AF0008830006820F03000E16808437E49C1F872
:101B00008800207800F00800082809D17A48883039
:101B1000006820F0C000216908437749C1F88800B7
:101B2000207800F02000202809D173488830006810
:101B300020F44060616908436F49C1F8880020784B
:101B400000F04000402809D16B488830006820F43C
:101B50004050A16908436849C1F88800207800F026
:101B60008000802809D164488830006820F4404013
:101B7000E16908436049C1F88800208800F480705A
:101B8000B0F5807F09D15C488830006820F440308F
:101B9000216A08435849C1F88800208800F4007081
:101BA000B0F5007F09D154488830006820F4402007
:101BB000616A08435049C1F88800208800F48060B9
:101BC000B0F5806F13D14C488830006820F4401085
:101BD000A16A0843484988310860A06AB0F5801FAF
:101BE00005D14548C06840F480104349C86020884A
:101BF00000F40060B0F5006F13D13F4888300068F2
:101C000020F44000E16A08433B4988310860E06AFB
:101C1000B0F5800F05D13848C06840F480103649CF
:101C2000C860208800F48050B0F5805F13D132483E
:101C30008830006820F04070216B08432E498831BD
:101C40000860206BB0F1807F05D12B48C06840F45C
:101C500080102949C860208800F40050B0F5005F6A
:101C600013D125488830006820F04060616B08433C
:101C7000214988310860606BB0F1006F05D11E48C2
:101C8000C06840F480101C49C860208800F480407F
:101C9000B0F5804F13D118488830006820F04060BC
:101CA000A16B0843144988310860A06BB0F1006F44
:101CB00005D11148C06840F480100F49C8602088E1
:101CC00000F40040B0F5004F13D10B488830006895
:101CD00020F04050E16B0843074988310860E06B11
:101CE000B0F1805F05D10448C06840F480300249FB
:101CF000C8604046BDE8F883001002400070004014
:101D00002DE9F04104460D464FF0000814B90120BA
:101D1000BDE8F0817D48006800F00F00A8420ED2B7
:101D20007A48006820F00F00284378490860084688
:101D3000006800F00F00A84201D00120E8E72078F9
:101D400000F00100002864D06068032823D17048A7
:101D5000006800F0007008B90120D9E702F06EFCBD
:101D600006466C48864237D96948806800F0F00022
:101D700030B1207800F0020002282DD1A06858BBB5
:101D80006348806820F0F00040F08000604988607F
:101D90004FF0800820E06068022806D15C480068A7
:101DA00000F4003040B90120B2E75948006800F45F
:101DB000806008B90120ABE700F0DEF80646554820
:101DC000864209D95248806820F0F00040F0800037
:101DD0004F4988604FF080084D48806820F003002C
:101DE000616808434A498860FFF766FC074608E0D7
:101DF000FFF762FCC01B41F28831884201D9032001
:101E000086E74348806800F00C006168B0EB810F02
:101E1000EED1207800F00200022820D1207800F0D6
:101E20000400042805D13A48806840F4E06038494D
:101E30008860207800F00800082807D134488068BE
:101E400020F4605040F4E060314988603048806898
:101E500020F0F000A16808432D49886008E0B8F13F
:101E6000800F05D12A48806820F0F000284988605A
:101E70002648006800F00F00A84219D923480068DE
:101E800020F00F00284321490860FFF715FC0746A2
:101E900008E0FFF711FCC01B41F28831884201D9EC
:101EA000032035E71948006800F00F00A842F0D180
:101EB000207800F00400042807D11548806820F439
:101EC000E060E168084312498860207800F008006B
:101ED000082808D10E48806820F46050216940EA43
:101EE000C1000B49886000F047F809498968C1F3CF
:101EF0000311094A515C01F01F01C84007490860FD
:101F000007480068FFF7FAFB02E7000000200240E4
:101F10000010024000B4C404888200084C00002075
:101F20005400002001480068704700004C00002069
:101F300000B5FFF7F7FF05498968C1F30221044A9C
:101F4000515C01F01F01C84000BD000000100240BC
:101F50009882000800B5FFF7E5FF05498968C1F3DD
:101F6000C221044A515C01F01F01C84000BD0000BD
:101F7000001002409882000870B5224DAD6805F04F
:101F80000C05042D01D120483AE01E4DAD6805F046
:101F90000C05082D01D11D4832E01A4DAD6805F041
:101FA0000C050C2D2BD1174DED6805F00304154DD4
:101FB000ED68C5F303156A1C022C0CD0032C09D163
:101FC000124DB5FBF2F50F4EF668C6F3062605FB7B
:101FD00006F10AE000BF0C4DB5FBF2F5094EF668BC
:101FE000C6F3062605FB06F100BF00BF054DED68F0
:101FF000C5F341656D1C6B00B1FBF3F000E0002000
:1020000070BD0000001002400024F40000366E0194
:102010002DE9F843044614B90120BDE8F88320787F
:1020200000F00100002865D0FC48806800F00C0733
:10203000FA48C06800F003060C2F01D1032E01D02E
:10204000082F0AD1F548006800F40030002851D06C
:10205000606800284ED10120DFE700BF6068B0F55E
:10206000803F06D1ED48006840F48030EB490860BD
:102070001AE06068B0F5A02F0BD1E848006840F482
:102080008020E64908600846006840F48030086017
:102090000AE0E248006820F48030E0490860084621
:1020A000006820F48020086000BF606888B1FFF7F6
:1020B00003FB054606E0FFF7FFFA401B642801D941
:1020C0000320AAE7D548006800F400300028F2D0C9
:1020D00010E0FFF7F1FA054606E0FFF7EDFA401BC6
:1020E000642801D9032098E7CC48006800F4003048
:1020F0000028F2D1207800F00200022860D1C74801
:10210000806800F00C07C548C06800F003060C2F7B
:1021100001D1022E01D0042F18D1C048006800F46C
:10212000806018B1E06808B9012076E7BB484068D4
:1021300020F0FE40217C40EA0160B8494860B84880
:102140000068FFF7DBFA18B3012066E7E06800B328
:10215000B248006840F48070B0490860FFF7ACFAFC
:10216000054606E0FFF7A8FA401B022801D9032024
:1021700053E7AA48006800F480600028F2D0A7481E
:10218000406820F0FE40217C40EA0160A34948609D
:1021900016E0A248006820F48070A0490860FFF7AC
:1021A0008BFA054606E0FFF787FA401B022801D9A3
:1021B000032032E79948006800F480600028F2D1DB
:1021C000207800F00800082836D16069D0B1934823
:1021D0009430006840F001009049C1F89400FFF786
:1021E0006BFA054606E0FFF767FA401B022801D9A3
:1021F000032012E789489430006800F002000028AC
:10220000F1D019E085489430006820F0010083493E
:10221000C1F89400FFF750FA054606E0FFF74CFAC4
:10222000401B022801D90320F7E67C48943000685F
:1022300000F002000028F1D1207800F0040004280A
:1022400072D14FF000087548806D012121EA1070AD
:1022500078B100BF7148806D40F080506F4988654B
:102260000846806D00F08050009000BF00BF4FF026
:1022700001086C48006800F48070B0B969480068D3
:1022800040F4807067490860FFF716FA054606E0DB
:10229000FFF712FA401B022801D90320BDE661486E
:1022A000006800F480700028F2D000BFA068012808
:1022B00008D15A489030006840F001005749C1F8F1
:1022C000900021E0A06805280FD1544890300068A4
:1022D00040F004005149C1F890000846D0F8900041
:1022E00040F00100C1F890000EE04C4890300068CA
:1022F00020F001004949C1F890000846D0F890004C
:1023000020F00400C1F8900000BFA068A8B1FFF75A
:10231000D3F9054609E0FFF7CFF9401B41F28831B8
:10232000884202D9032078E625E03C4890300068D6
:1023300000F002000028EED013E0FFF7BDF90546DB
:1023400008E0FFF7B9F9401B41F28831884201D912
:10235000032062E631489030006800F00200002857
:10236000EFD1B8F1010F05D12C48806D20F08050DD
:102370002A49886500BF207800F02000202836D147
:10238000A069D0B125489830006840F00100234989
:10239000C1F89800FFF790F9054606E0FFF78CF9C1
:1023A000401B022801D9032037E61C4898300068FA
:1023B00000F002000028F1D019E0184898300068B9
:1023C00020F001001549C1F89800FFF775F905469E
:1023D00006E0FFF771F9401B022801D903201CE633
:1023E0000E489830006800F002000028F1D1E06942
:1023F000002860D00948806800F00C000C287AD0D2
:10240000E069022858D10548006820F0807003492F
:102410000860FFF751F905460DE00000001002408A
:102420005400002000700040FFF746F9401B0228CE
:1024300001D90320F1E54A48006800F00070002847
:10244000F2D1D4E90810401E41EA0011A06A41EA25
:102450000021208E0122C2EB500041EA405134207D
:10246000005DC2EB500041EA40612C20005D41EA72
:10247000C0603B49C9683B4A114008433849C860BD
:102480000846006840F0807008600846C06840F068
:102490008070C860FFF710F9054606E0FFF70CF9F9
:1024A000401B022801D90320B7E52D48006800F041
:1024B00000700028F2D051E02948006820F08070B8
:1024C00027490860FFF7F8F8054606E0FFF7F4F83B
:1024D000401B022801D903209FE52148006800F035
:1024E00000700028F2D11E48C0681F4908401C49EE
:1024F000C86033E0FFE7E069012800D18DE51848A6
:10250000C66806F00301206A814225D106F0F00179
:10251000606A401EB1EB001F1ED106F4FE41A06AA6
:10252000B1EB002F18D106F078412C20005DB1EB03
:10253000C06F11D106F4C001208E0122C2EB500001
:10254000B1EB405F08D106F0C0613420005DC2EB02
:102550005000B1EB406F01D001205EE500205CE54A
:10256000001002400C809F01FCFFEEFE70B5044697
:102570002546681EB0F1807F01D301200FE0681E60
:102580004FF0E02148610F214FF0FF3003F090FD44
:1025900000204FF0E021886107200861002070BD15
:1025A00070477047704770477047704730B50246B4
:1025B0000B4600BF92F83C00012801D1022030BD3B
:1025C000012082F83C0000BF022082F83D00106824
:1025D0004168106884681D4D1068A84203D01C4DE6
:1025E0001068A84203D121F47001586801431948CA
:1025F00001401868014310684160144D1068A842FA
:1026000013D01068B0F1804F0FD0134D1068A8425E
:102610000BD0124D1068A84207D00D4D1068A8428B
:1026200003D00F4D1068A84205D124F080049868AB
:10263000044310688460012082F83D0000BF002040
:1026400082F83C0000BF00BFB9E70000002C014049
:10265000003401408FFFFFFD0004004000080040EF
:1026600000400140704710B504460CB9012010BD70
:1026700094F83D0028B9002084F83C00204600F082
:1026800029F8022084F83D00211D206802F0FCF9A1
:10269000012084F8480000BF84F83E0001213F205B
:1026A000015540200155412001554220015543204C
:1026B000015500BF00BF012084F8440045200155AA
:1026C000462001554720015500BF012084F83D00F8
:1026D0000020CCE710B586B00446142101A8FDF710
:1026E000D1FD2068B0F1804F16D100BF3348806D16
:1026F00040F00100314988650846806D00F0010016
:10270000009000BF00BF002211461C20FFF758F8C0
:102710001C20FFF741F84FE029492068884231D159
:1027200000BF2648806D40F00200244988650846B5
:10273000806D00F00200009000BF00BF00BF08469F
:10274000C06C40F00100C8640846C06C00F0010095
:10275000009000BF00BF8020019002200290002066
:10276000039004900220059001A94FF09040FEF7DD
:10277000AFFE002211461D20FFF722F81D20FFF7B3
:102780000BF819E00F492068884215D100BF0B48AB
:10279000806D40F00400094988650846806D00F0AE
:1027A0000400009000BF00BF002211461E20FFF76A
:1027B00007F81E20FEF7F0FF06B010BD0010024023
:1027C0000004004000080040014691F83D00012847
:1027D00001D001207047022081F83D000868C068E0
:1027E00040F001000B68D860184B0868984213D07D
:1027F0000868B0F1804F0FD0154B086898420BD095
:10280000144B0868984207D0134B0868984203D0CD
:10281000124B0868984210D108688068104B00EA93
:102820000302062A0FD0B2F5803F0CD0086800687A
:1028300040F001000B68186005E00868006840F08F
:1028400001000B6818600020C4E70000002C014064
:1028500000040040000800400034014000400140F6
:10286000070001002DE9F04104460D46002700BF96
:1028700094F83C00012802D10220BDE8F08101203B
:1028800084F83C0000BF022084F83D002068866880
:102890003F48064026F47F462068866028687028F6
:1028A00024D00CDC00F00F01002964D100110728AE
:1028B00061D2DFE800F05354555649353F00354AA0
:1028C000811A90424FD009DCB0F5805F0DD0B0F591
:1028D000005F18D0B0F1101F4DD143E0102943D054
:1028E000202942D0502946D140E046E0D5E90213E4
:1028F0006A68206802F03FF92068866846F077062B
:102900002068866039E0D5E902136A68206802F021
:1029100032F92068806840F48040216888602CE0AB
:10292000EA686968206802F093FB5021206802F091
:102930002DF922E0EA686968206802F0DBFB60217B
:10294000206802F023F918E0EA686968206802F05C
:102950007FFB4021206802F019F90EE000BF00BFA4
:1029600000BF00BF00BF00BF00BF00BF29682068D4
:1029700002F00CF901E0012700BF00BF012084F83C
:102980003D0000BF002084F83C0000BF384674E7DB
:1029900088FFCEFF2000100010B52DED048B0446FB
:1029A000224884423FD10021204600F06BFD20499F
:1029B00008800421204600F065FD1E490880084675
:1029C0000088FDF7F2FD41EC190B53EC192B9FED3C
:1029D0001A0B51EC100BFDF779FDFDF706FE1849B7
:1029E0000860084690ED000AF0EE000A20EE200A8A
:1029F0001448D0ED000A60EE200A1348007800EE7B
:102A0000100AB8EE400A60EE800A1048007864218F
:102A100010FB01F000EE100AB8EEC00A80EE801A3A
:102A20000B4880ED001ABDEC048B10BD380100206E
:102A30003C0000203E00002000000000D012634156
:102A40002C0000202800002013000020140000208B
:102A5000240000202DE9F04104460D4616460027CB
:102A600000BF94F83C00012802D10220BDE8F081AB
:102A7000012084F83C0000BF96B9EB68D5E900124C
:102A8000206802F0F9FA2068806920F00C002168C3
:102A9000886120688069A96808432168886141E0ED
:102AA000042E13D1EB68D5E90012206802F036FB42
:102AB0002068806920F4406021688861206880690E
:102AC000A96840EA0120216888612BE0082E12D114
:102AD000EB68D5E90012206802F03DFB2068C06970
:102AE00020F00C002168C8612068C069A96808430B
:102AF0002168C86116E00C2E13D1EB68D5E90012ED
:102B0000206802F044FB2068C06920F4406021681E
:102B1000C8612068C069A96840EA01202168C861CD
:102B200000E0012700BF002084F83C0000BF3846C9
:102B30009CE710B504460CB9012010BD94F83D0087
:102B400028B9002084F83C00204600F029F8022033
:102B500084F83D00211D206801F096FF012084F8D3
:102B6000480000BF84F83E0001213F20015540206D
:102B7000015541200155422001554320015500BF18
:102B800000BF012084F8440045200155462001552E
:102B90004720015500BF012084F83D000020CCE70C
:102BA000704700002DE9F04304460D46002715B993
:102BB00094F83E0015E0042D02D13F20005D10E0A6
:102BC000082D02D14020005D0BE00C2D02D14120E8
:102BD000005D06E0102D02D14220005D01E043209F
:102BE000005D804615B994F844000BE0042D02D135
:102BF0004520005D06E0082D02D14620005D01E081
:102C00004720005D8146B8F1010F02D1B9F1010FF3
:102C100002D00120BDE8F0831DB9022084F83E00F7
:102C20001AE0042D03D102213F20015514E0082DA4
:102C300003D10221402001550EE00C2D03D10221C9
:102C40004120015508E0102D03D1022142200155F9
:102C500002E00221432001551DB9022084F84400FE
:102C60000EE0042D03D102214520015508E0082D76
:102C700003D102214620015502E0022147200155DF
:102C800035B1042D0BD0082D10D00C2D1CD114E023
:102C90002068C06840F002002168C86016E0206823
:102CA000C06840F004002168C8600FE02068C06878
:102CB00040F008002168C86008E02068C06840F063
:102CC00010002168C86001E0012700BF00BF67BB9A
:102CD00001222946206801F03DFF184920688842FA
:102CE00013D02068B0F1804F0FD01549206888427A
:102CF0000BD014492068884207D0134920688842C5
:102D000003D012492068884210D120688068104999
:102D100000EA0106062E0FD0B6F5803F0CD02068E1
:102D2000006840F001002168086005E02068006844
:102D300040F001002168086038466BE7002C014034
:102D40000004004000080040003401400040014001
:102D50000700010070B504462068C6682068056950
:102D600005F00200022819D106F00200022815D150
:102D7000401F21680861012020772068806900F0E9
:102D8000030018B12046FFF707FE05E0204600F0DB
:102D90001BF9204600F009FA0020207705F0040016
:102DA000042819D106F00400042815D1C043216875
:102DB0000861022020772068806900F4407018B113
:102DC0002046FFF7E9FD05E0204600F0FDF820462B
:102DD00000F0EBF90020207705F00800082819D151
:102DE00006F00800082815D1C043216808610420B6
:102DF00020772068C06900F0030018B12046FFF773
:102E0000CBFD05E0204600F0DFF8204600F0CDF9CC
:102E10000020207705F01000102819D106F01000CE
:102E2000102815D1C0432168086108202077206848
:102E3000C06900F4407018B12046FFF7ADFD05E011
:102E4000204600F0C1F8204600F0AFF900202077BE
:102E500005F0010048B106F0010030B16FF001004B
:102E600021680861204600F047FA05F080008028BC
:102E700004D005F40050B0F5005F0AD106F08000E0
:102E8000802806D16FF40250216808612046FFF7C0
:102E900088FB05F48070B0F5807F0AD106F08000D1
:102EA000802806D16FF48070216808612046FFF702
:102EB00077FB05F04000402809D106F0400040288B
:102EC00005D1C04321680861204600F02AFB05F0C7
:102ED0002000202809D106F02000202805D1C04379
:102EE000216808612046FFF75DFB05F48010B0F50E
:102EF000801F0BD106F48010B0F5801F06D16FF44F
:102F00008010216808612046FFF74EFB05F4001091
:102F1000B0F5001F0BD106F40010B0F5001F06D16C
:102F20006FF40010216808612046FFF73CFB05F4B0
:102F30008000B0F5800F0BD106F48000B0F5800F53
:102F400006D16FF48000216808612046FFF72DFB51
:102F500005F40000B0F5000F0BD106F40000B0F549
:102F6000000F06D16FF40000216808612046FFF7CA
:102F700079FB70BD10B586B00446142101A8FDF799
:102F800081F92068B0F1804F1AD100BF0D48C06CA4
:102F900040F001000B49C8640846C06C00F0010015
:102FA000009000BF00BF022001900290002003901B
:102FB00004900120059001A94FF09040FEF788FA97
:102FC00006B010BD0010024070472DE9F0410446E4
:102FD0000D461646002700BF94F83C00012802D198
:102FE0000220BDE8F081012084F83C0000BF0C2ED7
:102FF00051D005DC4EB1042E1ED0082E7AD133E01C
:10300000102E60D0142EF9D175E02946206801F009
:10301000C9FD2068806940F0080021688861206847
:10302000806920F00400216888612068806929692E
:1030300008432168886178E02946206801F008FE8D
:103040002068806940F40060216888612068806998
:1030500020F480602168886120688069296940EADD
:1030600001202168886160E02946206801F04AFE5D
:103070002068C06940F008002168C8612068C06904
:1030800020F004002168C8612068C06929690843EC
:103090002168C86149E02946206801F08DFE20685A
:1030A000C06940F400602168C8612068C06920F4EC
:1030B00080602168C8612068C069296940EA0120F0
:1030C0002168C86131E02946206801F0CFFE206800
:1030D000006D40F00800216808652068006D20F050
:1030E0000400216808652068006D2969084321688B
:1030F00008651AE017E02946206801F0EFFE206815
:10310000006D40F40060216808652068006D20F4BF
:103110008060216808652068006D296940EA012007
:103120002168086501E0012700BF00BF00BF002043
:1031300084F83C0000BF384653E710B504460CB98C
:10314000012010BD94F83D0028B9002084F83C000F
:10315000204600F029F8022084F83D00211D206857
:1031600001F092FC012084F8480000BF84F83E0082
:1031700001213F20015540200155412001554220A9
:1031800001554320015500BF00BF012084F84400D1
:1031900045200155462001554720015500BF01201B
:1031A00084F83D000020CCE77047704770B50446B6
:1031B0000D4615B994F83E0015E0042D02D13F20CC
:1031C000005D10E0082D02D14020005D0BE00C2DC9
:1031D00002D14120005D06E0102D02D14220005DA9
:1031E00001E04320005D012801D0012070BD1DB920
:1031F000022084F83E001AE0042D03D102213F2072
:10320000015514E0082D03D10221402001550EE0A4
:103210000C2D03D102214120015508E0102D03D1CE
:1032200002214220015502E00221432001550122E2
:103230002946206801F08EFC2749206888420FD07B
:103240002649206888420BD025492068884207D04B
:1032500024492068884203D023492068884201D14C
:10326000012000E0002028B12068406C40F40040BC
:103270002168486418492068884213D02068B0F15A
:10328000804F0FD01949206888420BD01849206818
:10329000884207D011492068884203D0104920682D
:1032A000884210D120688068124900EA0106062E83
:1032B0000FD0B6F5803F0CD02068006840F00100C8
:1032C0002168086005E02068006840F0010021687E
:1032D000086000208AE70000002C01400034014013
:1032E000004001400044014000480140000400400B
:1032F000000800400700010010B50446554884420C
:1033000047D155480068401C53490860534800683D
:10331000401C5249086052480078D0B351480078A8
:1033200020B951480068401C4F4908604E48006869
:10333000C8282ED34D480078401C4C4908704C4892
:103340000078012810D14B4890ED000A4A48D0ED92
:10335000000AB4EEE00AF1EE10FA15D290ED000A80
:10336000444880ED000A0FE0444890ED000A4248CE
:10337000D0ED000AB4EEE00AF1EE10FA04D290EDBE
:10338000000A3E4880ED000A0020374908603449B1
:103390000870314800680A21B0FBF1F201FB12000D
:1033A000002856D12F480078E0B32E480078012835
:1033B0000ED18007806A4F2805D84807806A401CD4
:1033C0004907886218E04F204FF08041886213E07F
:1033D0002448007802280FD14007806A272807D3A5
:1033E0004FF08040806A401E4FF08041886203E0C9
:1033F00027204FF0804188624FF08040806A272864
:1034000004D04FF08040806A4F280BD10121022068
:1034100003F084FC00201349087013490860012060
:103420000F4908700F48007870B11548007808B946
:10343000012000E00020124908700846007820B101
:103440000021022003F06AFC03E00121022003F0C6
:1034500065FC10BD84010020380000201C00002005
:103460000B0000200A0000200C00002015000020A6
:10347000090000203000002024000020340000203B
:10348000180000200246002031B1042907D0082985
:1034900008D00C290CD108E01368586B09E01368B8
:1034A000986B06E01368D86B03E01368186C00E0B3
:1034B00000BF00BF704770B504460D4600BF94F8CA
:1034C0003C00012801D1022070BD012084F83C009D
:1034D00000BF022084F83D002946204601F036FD59
:1034E00048B1012084F83D0000BF002084F83C0072
:1034F00000BF0120E8E72068C06820F04000216894
:10350000C8602068C06820F480402168C86001203D
:1035100084F83D0000BF002084F83C0000BF00BFDD
:10352000D2E77047014600BF91F88400012801D11D
:1035300002207047012081F8840000BF2420C1F8D8
:103540008800086802680868006820F001000B68BD
:10355000186022F0005200204866086802602020AF
:10356000C1F8880000BF002081F8840000BF00BFC0
:10357000DFE77047704770B504460D4600BF94F80A
:103580008400012801D1022070BD012084F884004C
:1035900000BF2420C4F888002068066820680068FE
:1035A00020F00100216808602068806820F06060D9
:1035B000284321688860204601F008FE20680660E4
:1035C0002020C4F8880000BF002084F8840000BFD9
:1035D00000BFD9E770B504460D4600BF94F88400DB
:1035E000012801D1022070BD012084F8840000BFB1
:1035F0002420C4F88800206806682068006820F04D
:103600000100216808602068806820F0604028433D
:1036100021688860204601F0D9FD206806602020DE
:10362000C4F8880000BF002084F8840000BF00BFF9
:10363000D9E77047704770472DE9F0470446206886
:10364000C569206806682068876840F60F0005EAAB
:103650000009B9F1000F0FD105F0200060B106F0AC
:10366000200010B907F0805030B1606F10B12046D3
:10367000616F8847BDE8F087B9F1000F7ED0D4486C
:10368000384018B9D34830400028F7D005F0010081
:1036900058B106F4807040B1012021680862D4F866
:1036A000900040F00100C4F8900005F0020058B10D
:1036B00007F0010040B1022021680862D4F89000B0
:1036C00040F00400C4F8900005F0040058B107F081
:1036D000010040B1042021680862D4F8900040F055
:1036E0000200C4F8900005F0080070B106F0200058
:1036F00010B9B748384040B1082021680862D4F8B2
:10370000900040F00800C4F8900005F4006060B13B
:1037100006F0806048B14FF4006021680862D4F878
:10372000900040F02000C4F89000D4F890000028E9
:1037300052D005F0200050B106F0200010B907F07B
:10374000805020B1606F10B12046616F8847D4F877
:1037500090A02068806800F04000402802D00AF065
:10376000280070B3204601F05BFE2068806800F0FE
:103770004000402826D100BF00BF00E02DE02168B6
:10378000083151E8001F21F040002168083141E86C
:103790000002002AF1D100BFD4F8800068B18E4841
:1037A000D4F880108863D4F88000FDF732FE98B119
:1037B000D4F88000816B88470EE02046FFF73BFF7E
:1037C0000AE003E02046FFF736FF05E02046FFF75A
:1037D00032FF0020C4F890004CE7E06E012865D16C
:1037E00005F01000002861D006F010000028FAD083
:1037F0001020216808622068806800F0400040289E
:1038000065D1D4F88000006840681FFA80F8B8F1EC
:10381000000F5BD0B4F85C00404557DDA4F85E8033
:10382000D4F880000068006800F02000E8BB00BF0A
:1038300000BF216851E8001F21F48070226842E82F
:1038400000010029F5D100BF00BF00BF2168083189
:1038500051E8001F21F001002168083141E8000211
:10386000002AF3D100BF00BF00BF2168083151E832
:10387000001F21F040002168083141E80002002AC1
:10388000F3D100BF2020C4F88C000020E06600BF08
:1038900000BF216851E8001F21F01000226842E8B3
:1038A00000010029F5D100BF01E004E053E0D4F8A5
:1038B0008000FDF773FD02202067B4F85C00B4F8C7
:1038C0005E20801A81B22046FFF753FED2E634F81C
:1038D0005C0F6188401A1FFA80F860885C3CC8B3AE
:1038E000B8F1000F36D000BF00BF216851E8001FBB
:1038F00021F49070226842E800010029F5D100BF50
:1039000000BF00BF2168083151E8001F304AD24390
:1039100001EA02002168083141E80002002AF1D1E1
:1039200000BF2020C4F88C000020E066606700BF64
:1039300000BF216851E8001F21F01000226842E812
:1039400000010029F5D100BF022020674146204632
:10395000FFF70FFE8EE605F4801050B107F48000EB
:1039600038B14FF48010216808622046FFF762FEEC
:1039700080E605F0800058B106F0800010B907F429
:10398000000028B1A06F10B12046A16F884771E6F2
:1039900005F0400030B106F0400018B1204601F0BB
:1039A00075FD67E605F4000030B106F0804018B1FF
:1039B0002046FFF73EFE5DE605F0807030B106F070
:1039C000004018B12046FFF7D5FD53E600BF51E691
:1039D00001000010200100040754000810B504463F
:1039E0000CB9012010BDA06900B100E000BFD4F8FF
:1039F000880028B9002084F88400204600F02AF8C6
:103A00002420C4F888002068006820F001002168A4
:103A10000860A06A10B1204601F004FC204602F0C4
:103A20004BF8012800D1DDE72068406820F4904081
:103A3000216848602068806820F02A00216888603A
:103A40002068006840F0010021680860204601F00D
:103A500065FCC7E710B598B00446142113A8FCF71D
:103A600011FC442102A8FCF70DFC21492068884282
:103A70003BD1012002900020039002A8FDF788FFAF
:103A800008B1FCF761FF00BF1A48006E40F48040A7
:103A9000184908660846006E00F48040019000BF97
:103AA00000BF00BF0846C06C40F00100C864084673
:103AB000C06C00F00100019000BF00BF4FF4C06077
:103AC0001390022014900020159016900720179054
:103AD00013A94FF09040FDF7FBFC00221146252072
:103AE000FDF76EFE2520FDF757FE18B010BD000053
:103AF000003801400010024070B504460D461646DD
:103B0000D4F88C00202821D105B10EB9012070BD58
:103B10000020E0660E492068884211D02068406885
:103B200000F4000060B100BF00BF216851E8001F31
:103B300041F08060226842E800010029F5D100BF11
:103B400032462946204602F079F9E0E70220DEE716
:103B50000080004010B5044610492068096888427A
:103B60001BD10F4801780F4802880088401C0D4B7C
:103B700018800D4881540A4800780A2808D101208D
:103B80000A490870002118460088801E064A115410
:103B9000012203490148FFF7AFFF10BDD00200200A
:103BA0004000002042000020D001002044000020FE
:103BB0002DE9F84F04460E4617469946D4F888007A
:103BC000202854D106B117B90120BDE8F88F002094
:103BD0005434E06321206063FDF76EFD8246278048
:103BE0006780543CA068B0F5805F04D1206910B9AB
:103BF0000025B04602E035464FF0000820E053466D
:103C0000002280212046CDF8009002F0C5F920B1B5
:103C10002020C4F888000320D7E745B9B8F8000091
:103C2000C0F308002168886208F1020803E02878E0
:103C3000216888626D1CB4F85600401EA4F8560036
:103C4000B4F856000028DAD153460022402120461D
:103C5000CDF8009002F0A0F920B12020C4F888002F
:103C60000320B2E72020C4F888000020ADE702203E
:103C7000ABE7704700BFFEE700B585B0142168468A
:103C8000FCF700FB4FF6FF7000900020019003202E
:103C900003900020029069460248FDF719FC05B028
:103CA00000BD00000008004800B585B0142168463A
:103CB000FCF7E8FA4FF6FF70009001200190032016
:103CC00003900020029069460248FDF701FC05B010
:103CD00000BD00000008004830B505460024002162
:103CE000084600F047F900F095F900BF03E02846C8
:103CF00000F054F9641CB4F5963FF8D330BD0000D1
:103D000000B587B0142102A8FCF7BCFA00BF2A480E
:103D1000C06C40F004002849C8640846C06C00F03C
:103D20000400019000BF00BF00BF0846C06C40F017
:103D30000100C8640846C06C00F00100019000BF9B
:103D400000BF00BF0846C06C40F00200C8640846CF
:103D5000C06C00F00200019000BF00BF4FF448703B
:103D600002900120039000200590049002A91348BE
:103D7000FDF7AEFB4FF4807002900120039000200D
:103D80000590049002A94FF09040FDF7A1FBFFF7CA
:103D90008BFF4FF09040806940F480704FF090416D
:103DA000886106481830006840F4087003491831EB
:103DB000086007B000BD0000001002400004004889
:103DC00070B505460E461446A4F12000C4B204EBBB
:103DD0004400044901EB00123146284600F01AF86D
:103DE00070BD0000B8700008F0B507460C4600250D
:103DF00040F23F1609E0227831463846FFF7E0FFEF
:103E0000A6F1100086B2641C6D1C207808B1142D38
:103E1000F1D3F0BD2DE9F04306468946174600244C
:103E20000025A046B0464946404600F0A3F800BF32
:103E30001EE000F0EFF800250FE037F81400012134
:103E4000A940084020B90C48008800F0A7F803E01A
:103E50000A48008800F0A2F86D1C102DEDD308F17F
:103E6000010000F0FF084946404600F083F8641C5A
:103E7000182CDED3BDE8F0830200002000000020F3
:103E800010B5FFF73DFF002000F016F80949088043
:103E90000846008848F23021884202D100F002FC36
:103EA00001E000F08FFC002000F006F801490880D6
:103EB00010BD00000400002070B5044627480068CB
:103EC00040F40070254908600846006840F480709E
:103ED000086022481038006840F020001F4910395F
:103EE00008601F4804601D48006840F020001B491E
:103EF000086000BF00BF00BF18481038006840F0DD
:103F000020001649103908600846006840F48070A7
:103F10000860FFF7B1FE4FF09040806A40F4807077
:103F20004FF09041886200BF00BF00BF0C48001FE7
:103F3000006885B24FF09040806940F480704FF087
:103F400090418861FFF7B0FE04481038006840F4E3
:103F50000070024910390860284670BD28040048E6
:103F60001408004801B5BDF800000149088008BDEB
:103F70000200002030B504460D462146202000F006
:103F800085F82946212000F081F830BD01B5BDF843
:103F900000000149088008BD000000201B49096895
:103FA00041F40071194A116018491039096841F447
:103FB0008071164A103A11601146096841F02001DB
:103FC0001160134908601149096841F020010F4A46
:103FD000116000BF00BF00BF0C491039096841F0F3
:103FE00020010A4A103A11601146096841F48071B3
:103FF000116000BF00BF00BF04491039096841F4D7
:104000000071024A103A116070470000280400480D
:10401000140800481B48006840F400701949086003
:104020000846006840F48070086016481038006840
:1040300040F020001349103908602220124908601E
:104040001048006840F020000E49086000BF00BF23
:1040500000BF0C481038006840F0200009491039B2
:1040600008600846006840F48070086000BF00BF28
:1040700000BF04481038006840F40070014910394E
:10408000086070472804004814080048214A126854
:1040900042F400721F4B1A601A46126842F4807292
:1040A0001A601C4A103A126842F02002194B103B69
:1040B0001A60194A1060174A126842F02002154B24
:1040C0001A6000BF00BF00BF124A103A126842F0E7
:1040D0002002104B103B1A601A46126842F480729C
:1040E0001A600D4A11600B4A126842F02002094B17
:1040F0001A6000BF00BF00BF064A103A126842F0C3
:104100002002044B103B1A601A46126842F4807277
:104110001A60704728040048140800488168024A61
:104120001140491C81607047C0FFFF7F01468868CD
:1041300000F01F007047024602F1600000EB8103AF
:10414000186800F0F840704701468868C0F3C00066
:1041500070470146886800F0010070470146886892
:10416000C0F30070704701468868C0F38000704754
:104170000146C86800F4406008B90120704700207B
:10418000FCE700008168024A1140091D8160704708
:10419000C0FFFF7F70B500F11404C1F3406504EB6C
:1041A00085031C68C1F304560725B540AC43C1F331
:1041B000045502FA05F52C431C6070BD826822F09C
:1041C000E0720A438260704710B500F1600404EBAE
:1041D00081031C6824F0004414431C6010BD426934
:1041E00022F000420A4342617047000000B589B0E6
:1041F000202101A8FCF746F81B481C4908604FF431
:1042000040304860002119488160C160016141610E
:1042100004218161002101774177012101620021A0
:1042200080F82410C162016380F83810C16380F8FF
:104230004010FCF713FE08B1FCF786FB0C48019018
:1042400006200290002003907F2004900420059017
:104250000020069001A90548FCF778FB08B1FCF79F
:1042600073FB09B000BD0000000100508000002079
:104270000080F03E00B587B0142102A8FCF702F8D8
:1042800000BF5048C06C40F004004E49C864084666
:10429000C06C00F00400019000BF00BF00BF0846E2
:1042A000C06C40F02000C8640846C06C00F02000DC
:1042B000019000BF00BF00BF0846C06C40F0010085
:1042C000C8640846C06C00F00100019000BF00BF48
:1042D00000BF0846C06C40F00200C8640846C06CCD
:1042E00000F00200019000BF00BF00BF0846C06C94
:1042F00040F00800C8640846C06C00F00800019057
:1043000000BF00BF00224FF6FF712F48FDF7CEF926
:1043100000224FF480714FF09040FDF7C7F9002262
:1043200004212A48FDF7C2F900224FF448712848B9
:10433000FDF7BCF94FF6FF700290012003900020BA
:104340000490059002A92048FDF7C2F801200290D0
:10435000002003900120049002A94FF09040FDF747
:10436000B7F807200290002003900120049002A9D2
:104370001748FDF7ADF84FF48070029001200390CC
:1043800000200490059002A94FF09040FDF7A0F89E
:104390000420029001200390022004900320059045
:1043A00002A90A48FDF794F84FF4487002900120E2
:1043B000039000200490059002A90548FDF788F8B5
:1043C00007B000BD0010024000080048000C004883
:1043D0000004004800B58FB000200B900C900D90A9
:1043E0000E90089009900A901C2101A8FBF74AFF43
:1043F0004FF080401F4908604F20486000211D4851
:104400008160F921C1600021016180218161FEF795
:104410002AF908B1FCF798FA4FF480500B900BA9D9
:104420001448FEF71FFA08B1FCF78EFA1148FEF7A0
:1044300084FE08B1FCF788FA002008900A9008A9C9
:104440000C48FEF7B3F808B1FCF77EFA6020019043
:1044500063200290002003900590042201A90548E2
:10446000FEF7B3FD08B1FCF76FFA0248FEF782FDD4
:104470000FB000BDEC00002000B591B000200D9001
:104480000E900F901090142108A8FBF7FBFE00205F
:1044900005900690079001900290039004902C489C
:1044A0002C4908600720486000212A4881604FF6A7
:1044B000FF71C160002101618161FEF7D4F808B18C
:1044C000FCF742FA4FF480500D900DA92148FEF7F9
:1044D000C9F908B1FCF738FA1E48FEF72AFB08B103
:1044E000FCF732FA042008906020099002200A901C
:1044F00000200C9008A91748FEF7DDFF08B1FCF773
:1045000023FA00200590079005A91248FEF74EF8FF
:1045100008B1FCF719FA0020019002200290002057
:1045200003900490002201A90A48FEF793FA08B10B
:10453000FCF70AFA0220019001200290042201A94E
:104540000448FEF787FA08B1FCF7FEF911B000BD88
:10455000000400403801002000B587B0002003901F
:10456000049005900690009001900290144815491F
:1045700008604F20486000211248816042F20F71AC
:10458000C160002101618161FEF76DF808B1FCF79F
:10459000DBF94FF48050039003A90A48FEF762F953
:1045A00008B1FCF7D1F90020009002906946054857
:1045B000FDF7FCFF08B1FCF7C7F907B000BD00002C
:1045C000000800408401002010B518481849086010
:1045D0004FF4E1304860002115488160C1600161FD
:1045E0000C21416100218161C161016241620020B1
:1045F0000F4988620846FFF7F1F908B1FCF7A4F902
:1046000000210B48FEF7E6FF08B1FCF79DF90021F9
:104610000748FEF7B0FF08B1FCF796F90448FEF72B
:1046200081FF08B1FCF790F910BD0000003801408F
:10463000D002002000BFFEE77047704770B5164DEE
:10464000ED6805F00304144DED68C5F303156B1C0C
:10465000022C0CD0032C09D1104DB5FBF3F50E4EF6
:10466000F668C6F3062605FB06F10AE000BF0C4D0E
:10467000B5FBF3F5084EF668C6F3062605FB06F112
:1046800000BF00BF044DED68C5F341656D1C6A00B5
:10469000B1FBF2F070BD00000010024000366E0168
:1046A0000024F40000B501210020FFF7EFFC4FF4D7
:1046B0007A70FCF73AF900210120FFF7E7FC41F29C
:1046C00090711020FFF7E2FC4FF41C516020FFF7BF
:1046D000DDFC01216120FFF7D9FC02214620FFF714
:1046E000D5FC48F210011320FFF7D0FC48F2FE0180
:1046F0001220FFF7CBFC4FF4A0610220FFF7C6FCAD
:1047000041F230010320FFF7C1FC40F203313020B9
:10471000FFF7BCFC40F203313120FFF7B7FC40F259
:1047200003313220FFF7B2FC4FF440713320FFF722
:10473000ADFC03213420FFF7A9FC40F20331352002
:10474000FFF7A4FC14213620FFF7A0FC40F2033150
:104750003720FFF79BFC40F203313820FFF796FC2F
:1047600040F203313920FFF791FC4FF440713A20B9
:10477000FFF78CFC03213B20FFF788FC40F203315C
:104780003C20FFF783FC4FF4A0513D20FFF77EFC57
:104790004FF400719220FFF779FC40F2033193202F
:1047A000FFF774FC40F60D019020FFF76FFC41F21B
:1047B00018010320FFF76AFC40F273110720FFF78E
:1047C00065FC00BD10B543F20801E320FFF75EFC75
:1047D0001221E720FFF75AFC41F23121EF20FFF7C9
:1047E00055FC00210120FFF751FC4FF4E06102204D
:1047F000FFF74CFC41F230010320FFF747FC00219A
:104800000420FFF743FC40F207210820FFF73EFC9D
:1048100000210920FFF73AFC00210A20FFF736FCAF
:1048200000210C20FFF732FC00210D20FFF72EFCA9
:1048300000210F20FFF72AFC00211020FFF726FCA3
:1048400007211120FFF722FC00211220FFF71EFC98
:1048500000211320FFF71AFCC820FCF725FE41F2C7
:1048600090611020FFF712FC40F227211120FFF782
:104870000DFC3220FCF718FE1D211220FFF706FC6C
:104880003220FCF711FE4FF400611320FFF7FEFB0E
:1048900014212920FFF7FAFB0B212B20FFF7F6FB51
:1048A0003220FCF701FE00212020FFF7EFFB002162
:1048B0002120FFF7EBFB07213020FFF7E7FB40F259
:1048C00007713120FFF7E2FB06213220FFF7DEFB04
:1048D00040F204713520FFF7D9FB41F60471362010
:1048E000FFF7D4FB04213720FFF7D0FB002138204D
:1048F000FFF7CCFB40F206713920FFF7C7FB40F20F
:1049000001713C20FFF7C2FB0F213D20FFF7BEFBEA
:1049100000215020FFF7BAFBEF215120FFF7B6FB33
:1049200000215220FFF7B2FB40F23F115320FFF766
:10493000ADFB4FF41C516020FFF7A8FB0121612063
:10494000FFF7A4FB00216A20FFF7A0FB00218020D5
:10495000FFF79CFB00218120FFF798FB00218220BC
:10496000FFF794FB00218320FFF790FB00218420B8
:10497000FFF78CFB00218520FFF788FB102190209A
:10498000FFF784FB00219220FFF780FB0321932097
:10499000FFF77CFB4FF488719520FFF777FB002130
:1049A0009720FFF773FB00219820FFF76FFB41F280
:1049B00018010320FFF76AFB40F273110720FFF78D
:1049C00065FB10BD704710B5FCF77CFE10BD00B54F
:1049D00093B0382105A8FBF755FC14216846FBF776
:1049E00051FC4FF40070FCF73DFF02200590C00120
:1049F00008904020099002200C9002210D910E9108
:104A000014210F91022110911191129105A8FDF727
:104A1000FFFA08B1FBF798FF0F20009003200190E8
:104A2000002002900390049002216846FDF768F987
:104A300008B1FBF789FF13B000BD0000054800680E
:104A400040F47000034908604FF00060014980396C
:104A50000860704788ED00E010B50248FEF77AF96B
:104A600010BD0000EC00002010B50248FEF772F9FE
:104A700010BD00003801002010B50248FEF76AF9A9
:104A800010BD00008401002010B502682A4B984236
:104A90000BD0B0F1804F08D0284B984205D0284B5E
:104AA000984202D0274B984203D122F070024B6803
:104AB0001A43214B984214D0B0F1804F11D01F4BB4
:104AC00098420ED01E4B98420BD01E4B984208D0F5
:104AD0001D4B984205D01D4B984202D01C4B98426A
:104AE00003D122F44072CB681A4322F080034C6950
:104AF00043EA040202608B68C3620B6883620E4B58
:104B000098420BD00F4B984208D00F4B984205D0DB
:104B10000E4B984202D00E4B984201D10B690363B1
:104B200001234361036903F001031BB1036923F00F
:104B30000103036110BD0000002C0140000400408F
:104B400000080040003401400040014000440140A2
:104B50000048014030B501F01F05012404FA05F3B7
:104B6000046A9C430462046A01F01F0502FA05F519
:104B70002C43046230BD30B50C46816821F47F417E
:104B800042EA032525432943816030BD0A468168F6
:104B9000034B194042F0070319438160704700003E
:104BA0008FFFCFFF30B5026A056A25F00105056267
:104BB00043688469204D2C4024F003040D682C4385
:104BC00022F002028D682A431C4DA84200D10FE05A
:104BD0001B4DA84200D10BE01A4DA84200D107E0BE
:104BE000194DA84200D103E0184DA84206D100BFDC
:104BF00022F00802CD682A4322F004020F4DA84299
:104C00000BD00F4DA84208D00E4DA84205D00E4D36
:104C1000A84202D00D4DA84207D123F4807323F49B
:104C200000734D692B438D692B43436084614D684C
:104C30004563026230BD00008FFFFEFF002C014083
:104C40000034014000400140004401400048014060
:104C500030B5026A056A25F010050562436884696B
:104C6000224D2C4024F440740D6844EA052422F0BF
:104C700020028D6842EA05121D4DA84200D10FE0C6
:104C80001C4DA84200D10BE01B4DA84200D100BF33
:104C90001A4DA84200D100BF194DA84207D106E025
:104CA00022F08002CD6842EA051222F04002104D47
:104CB000A8420BD00F4DA84208D00F4DA84205D0F6
:104CC0000E4DA84202D00E4DA84209D123F48063B4
:104CD00023F400634D6943EA85038D6943EA850344
:104CE000436084614D688563026230BDFF8FFFFEC3
:104CF000002C0140003401400040014000440140CC
:104D00000048014030B5026A056A25F480750562E5
:104D10004368C469224D2C4024F003040D682C43E1
:104D200022F400728D6842EA05221E4DA84200D18D
:104D30000FE01D4DA84200D10BE01C4DA84200D150
:104D400000BF1B4DA84200D100BF1A4DA84207D199
:104D500006E022F40062CD6842EA052222F4806275
:104D6000104DA8420BD0104DA84208D00F4DA842BC
:104D700005D00F4DA84202D00E4DA84209D123F410
:104D8000805323F400534D6943EA05138D6943EAC8
:104D900005134360C4614D68C563026230BD000005
:104DA0008FFFFEFF002C0140003401400040014015
:104DB000004401400048014030B5026A056A25F40C
:104DC000805505624368C469224D2C4024F4407428
:104DD0000D6844EA052422F400528D6842EA053247
:104DE0001D4DA84200D10FE01C4DA84200D10BE0A0
:104DF0001B4DA84200D100BF1A4DA84200D100BFF0
:104E0000194DA84207D106E022F40042CD6842EADB
:104E1000053222F48042104DA8420BD00F4DA8421B
:104E200008D00F4DA84205D00E4DA84202D00E4D1D
:104E3000A84209D123F4804323F400434D6943EA97
:104E400085138D6943EA85134360C4614D68056429
:104E5000026230BDFF8FFFFE002C01400034014094
:104E600000400140004401400048014030B5026A62
:104E7000056A25F4803505624368046D114D2C40A8
:104E80000D682C4322F400320D8942EA05420E4D92
:104E9000A8420BD00D4DA84208D00D4DA84205D018
:104EA0000C4DA84202D00C4DA84204D123F480330B
:104EB0004D6943EA0523436004654D6885640262D9
:104EC00030BD00008FFFFEFF002C01400034014088
:104ED00000400140004401400048014030B5026AF2
:104EE000056A25F4801505624368046D114D2C4058
:104EF0000D6844EA052422F400120D8942EA0552A5
:104F00000D4DA8420BD00D4DA84208D00C4DA84223
:104F100005D00C4DA84202D00B4DA84204D123F479
:104F200080234D6943EA8523436004654D68C56469
:104F3000026230BDFF8FFFFE002C014000340140B3
:104F40000040014000440140004801402DE9F04785
:104F500005460C464FF00009286886683948064027
:104F60006068064338480640206806432868866023
:104F70006068602851D00EDC302857D006DC00284D
:104F800051D0102850D0202856D14EE040281ED0B5
:104F9000502851D13BE02D4A811A904249D00ADC79
:104FA00070280DD0B0F1101F41D0A0F5801020382E
:104FB000002841D13CE010293CD040293CD13AE0C6
:104FC000D4E90313A2682868FFF7D5FD37E020680D
:104FD000052803D02068B0F1011F02D10120BDE8EF
:104FE000F0872868D0F820802868006A20F0010047
:104FF000296808622868876927F0F007206947EA6E
:105000000017286887612868C0F8208017E02269A7
:10501000A168286800F01CF811E02269A1682868DE
:1050200000F068F80BE000BF00BF00BF00BF00BF8A
:1050300000BF00BF00BF02E04FF0010900BF00BF8A
:105040004846CCE78FFFCFFFF8FFFEFF300010008F
:1050500030B50B461446026A056A25F00105056263
:10506000816921F0F00141EA041122F00A021A4399
:105070008161026230BD000070B50C461546026ABF
:10508000066A26F0010606628169154EB0420ED00E
:10509000B0F1804F0BD0134EB04208D0124EB04248
:1050A00005D0124EB04202D0114EB04201D10126BD
:1050B00000E000261EB121F00301294301E041F088
:1050C000010121F0F001F02606EA0316314322F037
:1050D0000A0204F00A0632438161026270BD0000D8
:1050E000002C014000040040000800400034014052
:1050F0000040014030B50B461446026A056A25F0AF
:1051000010050562816921F4704141EA043122F001
:10511000A00242EA03128161026230BD70B50C4602
:105120001546026A066A26F010060662816921F4B5
:10513000407141EA052121F470414FF4704606EABE
:105140000336314322F0A002A02606EA04163243B9
:105150008161026270BD70B50C461546026A066A2E
:1051600026F480760662C16921F00301294321F00B
:10517000F001F02606EA0316314322F420624FF4D0
:10518000206606EA04263243C161026270BD70B532
:105190000C461546026A066A26F480560662C16904
:1051A00021F4407141EA052121F470414FF4704629
:1051B00006EA0336314322F420424FF4204606EA41
:1051C00004363243C161026270BD000070B5456EA5
:1051D0002DB90125A0F86A50A0F868501CE00823FA
:1051E00008240568AD68C5F342610568AD686A0FBB
:1051F0000A4DAD5C15FB04F5094EB65C95FBF6F562
:10520000A0F86A50054D6D5C15FB03F5044E765C05
:1052100095FBF6F5A0F8685070BD0000B882000854
:10522000C082000890F8281001F00801082907D171
:105230000168496821F40041826B114302685160A2
:1052400090F8281001F0010139B10168496821F492
:105250000031C26A11430268516090F8281001F0D1
:105260000201022907D10168496821F48031026BEB
:1052700011430268516090F8281001F004010429DC
:1052800007D10168496821F48021426B114302680B
:10529000516090F8281001F01001102907D1016821
:1052A000896821F48051C26B11430268916090F8C3
:1052B000281001F02001202907D10168896821F414
:1052C0000051026C11430268916090F8281001F0BF
:1052D0004001402913D10168496821F48011426CD2
:1052E000114302685160416CB1F5801F07D101681C
:1052F000496821F4C001826C11430268516090F842
:10530000281001F08001802907D10168496821F443
:105310000021C26C114302685160704738B50446E1
:105320000020C4F89000FCF7C7F905462068006823
:1053300000F00800082821D16FF07E402B460022A3
:105340004FF400110090204600F026FEB0B100BFDF
:1053500000BF216851E8001F21F08000226842E868
:1053600000010029F5D100BF2020C4F8880000BF4B
:10537000002084F8840000BF032038BD2068006846
:1053800000F00400042830D16FF07E402B4600224C
:105390004FF480010090204600F0FEFD28B300BFCE
:1053A00000BF216851E8001F21F49070226842E894
:1053B00000010029F5D100BF00BF00BF21680831FE
:1053C00051E8001F21F001002168083141E8000286
:1053D000002AF3D100BF2020C4F88C0000BF0020B9
:1053E00084F8840000BF0320C7E72020C4F88800A9
:1053F000C4F88C000020E066206700BF84F88400B9
:1054000000BF00BFB9E770B50546AC6A0020A4F83C
:105410005E00A4F856002046FEF70DF970BD0000AE
:1054200000BF00BF026852E8002F22F490710368A9
:1054300043E80012002AF5D100BF00BF00BF026898
:10544000083252E8002F104B02EA030102680832CA
:1054500042E80013002BF2D100BFC16E01290CD12C
:1054600000BF00BF026852E8002F22F0100103685D
:1054700043E80012002AF5D100BF2021C0F88C10AB
:105480000021C16641677047FEFFFFEF10B504467B
:1054900000BF00BF216851E8001F21F040002268D2
:1054A00042E800010029F5D100BF2020C4F888009F
:1054B0000020A0672046FEF7DCFB10BD2DE9F0417F
:1054C0000446B4F86070D4F88C0022286ED12068AD
:1054D000406A86B2A56D06EA07002880A06D801C90
:1054E000A065B4F85E00401EA4F85E00B4F85E004B
:1054F000002861D100BF00BF216851E8001F21F4DE
:105500009070226842E800010029F5D100BF00BF79
:1055100000BF2168083151E8001F21F00100216817
:10552000083141E80002002AF3D100BF2020C4F86E
:105530008C0000206067206720492068884211D0D5
:105540002068406800F4000060B100BF00BF21681F
:1055500051E8001F21F08060226842E80001002924
:10556000F5D100BFE06E01281CD10020E06600BF2D
:1055700000BF216851E8001F21F01000226842E8B6
:1055800000010029F5D100BF2068C069C0F30010F8
:1055900010B1102021680862B4F85C102046FDF7B5
:1055A000E8FF09E02046FEF7D5FA05E020688069AB
:1055B00040F0080021688861BDE8F081008000406B
:1055C0002DE9F84F0446B4F860B02068C56920683A
:1055D000006800902068D0F808A0D4F88C00222839
:1055E0007ED1B4F86890ADE02068406A1FFA80F878
:1055F000A76D08EA0B003880A06D801CA065B4F888
:105600005E00401EA4F85E002068C56905F0070032
:10561000B0B305F0010060B1009800F4807040B1B3
:10562000012021680862D4F8900040F00100C4F81D
:10563000900005F0020058B10AF0010040B10220CC
:1056400021680862D4F8900040F00400C4F890008B
:1056500005F0040058B10AF0010040B104202168AF
:105660000862D4F8900040F00200C4F89000D4F82A
:10567000900028B12046FDF7DEFF0020C4F890001E
:10568000B4F85E0000285DD100BF00BF216851E87A
:10569000001F21F48070226842E800010029F5D142
:1056A00000BF00BF00BF2168083151E8001F404A19
:1056B00001EA02002168083141E80002002AF2D123
:1056C00000BF2020C4F88C000020606720673949A3
:1056D0002068884213D02068406800F4000000E091
:1056E0005DE060B100BF00BF216851E8001F21F0FC
:1056F0008060226842E800010029F5D100BFE06E19
:1057000001281CD10020E06600BF00BF216851E8DD
:10571000001F21F01000226842E800010029F5D1A5
:1057200000BF2068C069C0F3001010B110202168CC
:105730000862B4F85C102046FDF71BFF02E020462B
:10574000FEF708FAB9F1000F04D005F02000002898
:105750007FF44AAFB4F85E6006B3B4F86800B042B4
:1057600023DD00BF00BF2168083151E8001F21F090
:1057700080502168083141E80002002AF3D100BFBF
:105780000D48606700BF00BF216851E8001F41F06D
:105790002000226842E800010029F5D105E02068D8
:1057A000806940F0080021688861BDE8F88F00003A
:1057B000FEFFFFEF00800040BD54000870B50446B6
:1057C000B4F86060D4F88C0022286FD12068406A59
:1057D00085B2F0B22840A16D0870A06D401CA06594
:1057E000B4F85E00401EA4F85E00B4F85E00002825
:1057F00062D100BF00BF216851E8001F21F4907002
:10580000226842E800010029F5D100BF00BF00BFB7
:105810002168083151E8001F21F00100216808319A
:1058200041E80002002AF3D100BF2020C4F88C0018
:1058300000206067206721492068884211D02068D5
:10584000406800F4000060B100BF00BF216851E86B
:10585000001F21F08060226842E800010029F5D194
:1058600000BFE06E01281CD10020E06600BF00BF31
:10587000216851E8001F21F01000226842E8000171
:105880000029F5D100BF2068C069C0F3001010B135
:10589000102021680862B4F85C102046FDF769FE0C
:1058A0000AE02046FEF756F906E0FFE72068806927
:1058B00040F008002168886170BD00000080004051
:1058C0002DE9F05F0446B4F860A02068C56920683F
:1058D000D0F800B02068D0F80890D4F88C002228C6
:1058E0007ED1B4F86880ACE02068406A87B20AF0E4
:1058F000FF003840A16D0870A06D401CA065B4F891
:105900005E00401EA4F85E002068C56905F007002F
:10591000A8B305F0010058B10BF4807040B101202C
:1059200021680862D4F8900040F00100C4F89000AB
:1059300005F0020058B109F0010040B102202168D1
:105940000862D4F8900040F00400C4F8900005F01C
:10595000040058B109F0010040B104202168086238
:10596000D4F8900040F00200C4F89000D4F8900001
:1059700028B12046FDF75FFE0020C4F89000B4F87F
:105980005E0000285DD100BF00BF216851E8001F04
:1059900021F48070226842E800010029F5D100BF9F
:1059A00000BF00BF2168083151E8001F3F4A01EAEB
:1059B00002002168083141E80002002AF2D100BF4C
:1059C0002020C4F88C0000206067206738492068D8
:1059D000884213D02068406800F4000070B100E0F5
:1059E0005CE000BF00BF216851E8001F21F080602B
:1059F000226842E800010029F5D100BFE06E0128CD
:105A00001CD10020E06600BF00BF216851E8001FE4
:105A100021F01000226842E800010029F5D100BF02
:105A20002068C069C0F3001010B11020216808621E
:105A3000B4F85C102046FDF79CFD02E02046FEF71E
:105A400089F8B8F1000F04D005F0200000287FF499
:105A50004BAFB4F85E6006B3B4F86800B04223DD23
:105A600000BF00BF2168083151E8001F21F08050BD
:105A70002168083141E80002002AF3D100BF0D4837
:105A8000606700BF00BF216851E8001F41F020009F
:105A9000226842E800010029F5D105E0206880690C
:105AA00040F0080021688861BDE8F09FFEFFFFEF2D
:105AB00000800040BD5700082DE9FE4F044600203D
:105AC0000290D4492068884200D100E000BF2169DB
:105AD000A068084361690843E16940EA0108206859
