:020000040800F2
:1000000098060020F1010008331F0008151A0008A7
:10001000311F0008FD020008B92800080000000098
:100020000000000000000000000000004B2200085B
:10003000FF02000800000000351F00084D220008E4
:100040000B0200080B0200080B0200080B0200085C
:100050000B0200080B0200080B0200080B0200084C
:100060000B0200080B0200080B0200080B0200083C
:100070000B0200080B0200080B0200080B0200082C
:100080000B020008000000000B0200080B02000831
:100090000B0200080B0200080B0200080B0200080C
:1000A0000B0200080B020008C92200080B0200081E
:1000B0000B0200080B0200080B0200080B020008EC
:1000C0000B0200080B0200080B0200080B020008DC
:1000D0000B0200080B0200080B0200080B020008CC
:1000E0000B0200080B0200080B0200080B020008BC
:1000F0000B0200080B0200080B02000800000000C1
:10010000000000000B020008000000000B020008C5
:100110000B020008000000000B0200080B020008A0
:100120000B0200080B0200080B0200080B0200087B
:100130000B02000800000000000000000B02000895
:100140000B0200080B020008000000000000000085
:10015000000000000000000000000000000000009F
:100160000000000000000000000000000B0200087A
:100170000B0200080000000000000000000000006A
:10018000000000000B02000800000000000000005A
:10019000000000000000000000000000000000005F
:1001A00000000000000000000B020008351D0008E0
:1001B0000B0200080B0200080B0200080000000000
:1001C000000000000B02000800000000000000001A
:1001D0000B0200080B020008DFF810D000F07CF8DA
:1001E0000048004745290008AFF30080980600202A
:1001F0000648804706480047FEE7FEE7FEE7FEE7C1
:10020000FEE7FEE7FEE7FEE7FEE7FEE7AD220008B9
:10021000D90100082DE9F05F0546002092469B4673
:1002200088460646814640241BE02846414647460C
:10023000224600F041F853465A46C01A914110D365
:1002400011461846224600F028F82D1A67EB0108DF
:100250004F4622460120002100F01FF817EB00094D
:100260004E41201EA4F10104DFDC484631462A46F7
:100270004346BDE8F09FD2B201E000F8012B491ED1
:10028000FBD270470022F6E710B513460A46044633
:100290001946FFF7F0FF204610BD202A04DB203A64
:1002A00000FA02F1002070479140C2F1200320FAC9
:1002B00003F3194390407047202A04DB203A21FAC7
:1002C00002F00021704721FA02F3D040C2F120026F
:1002D0009140084319467047064C074D06E0E06818
:1002E00040F0010394E8070098471034AC42F6D37D
:1002F000FFF776FFC4290008E4290008FEE77047ED
:10030000002240F6B83306E00021491C89B2994228
:10031000FBD3521C92B28242F6D37047704710B59D
:1003200090F8253000210122022B03D00421C16363
:10033000012122E003681C6824F00E041C60836C19
:100340001C6824F480741C6003681C6824F0010499
:100350001C6090F84430046C03F01F0302FA03F3AE
:100360006360D0E913345C60436D33B11C6824F4DE
:1003700080741C60D0E916345C6080F8252000226F
:1003800080F82420084610BD70B590F82520002480
:1003900001212346022A07D00422C26380F82510D7
:1003A00080F82430012429E00268156825F00E0544
:1003B00015600268156825F001051560826C1568E6
:1003C00025F48075156090F84420056C02F01F023A
:1003D00001FA02F26A60D0E913255560426D32B12C
:1003E000156825F480751560D0E91625556080F8EC
:1003F000251080F82430816B01B18847204670BDFC
:1004000070B5044600F038F90546601C02D0044877
:100410004068044400F030F9401BA042FAD370BD9C
:10042000140000202DE9F04FDFF820920023012670
:100430000324A9F1040B85B00F2709F1040AABF1DD
:10044000040EFAE006FA03F52A407CD091F804C0C5
:100450000CF0030CBCF1010F02D0BCF1020F26D14D
:10046000D0F808C0CDF800C04FEA430C04FA0CF8ED
:10047000CDF810C0DDF800C02CEA080CCDF800C0A3
:10048000D1F80C80DDF810C008FA0CF8DDF800C0D7
:1004900048EA0C08C0F80880D0F804C02CEA050C23
:1004A0000D79C5F300159D4045EA0C0545600D79B1
:1004B000ED43AD070ED0C5684FEA430804FA08FCC7
:1004C00025EA0C05D1F808C00CFA08FC4CEA050C2A
:1004D000C0F80CC00D7905F00305022D16D1DD081A
:1004E00000EB850CCDF808C0DCF820805D074FEAF2
:1004F000D56C07FA0CF528EA05080D6905FA0CF524
:10050000DDF808C045EA0805CCF8205005684FEA38
:10051000430CCDF808C004FA0CFC25EA0C0591F850
:1005200004C00CF00308DDF808C008FA0CF848EA2B
:100530000508C0F800804D6815F4403F7CD0444D5C
:10054000D5F860C000E077E04CF0010CC5F860C061
:100550002D6E23F0030C05F0010500953D4D65441B
:100560000295AD684FEA837C4FEA1C7807FA08FCD5
:1005700025EA0C05B0F1904F06D0DFF8DCC06045ED
:1005800005D14FF0010C20E04FF0000C1DE0DFF82A
:10059000CCC0604502D14FF0020C16E0DFF8C0C0BD
:1005A000604502D14FF0030C0FE0DFF8B8C06045A2
:1005B00002D14FF0040C08E0DFF8ACC0604502D176
:1005C0004FF0050C01E04FF0060C0CFA08FC4CEA69
:1005D000050C029DC5F808C0D9F80050CC46D1F8EA
:1005E000048095435FEAC82800D51543CCF8005035
:1005F000DAF80050D446D1F8048095435FEA8828A1
:1006000000D51543CCF80050DBF80050DC46D1F89B
:10061000048095435FEA883800D51543CCF8005034
:10062000DEF80050F446D1F8048095435FEAC838FC
:1006300000D51543CCF800505B1C0A6832FA03F56C
:100640007FF400AF05B0BDE8F08F00000804014062
:10065000001002400000014000040048000800486B
:10066000000C004800100048001400480AB18161E5
:100670007047816270470000014880687047000041
:10068000140000200248816842681144816070476C
:100690001400002010B50024032000F073F800209F
:1006A00000F008F808B1012401E000F025F8204628
:1006B00010BD000070B50E4E05460024706898B15C
:1006C0004FF47A71B1FBF0F00A490968B1FBF0F020
:1006D00000F060FD40B9102D06D200222946501EC0
:1006E00000F030F8356000E00124204670BD0000C5
:1006F00014000020100000200A4882B0016E41F072
:1007000001010166016E01F001010091816D41F06E
:1007100080518165806D00F08050009002B000F043
:10072000A1B8000000100240002809DB00F01F0201
:10073000012191404009800000F1E020C0F8001143
:1007400070470000F0B40E4B1B680C46C3F3022345
:10075000C3F10705042D00D90425191D072901D26D
:10076000002300E0DB1E012606FA05F1491E2140A8
:1007700099409E40761E16403143F0BC02F0A6B868
:100780000CED00E0064900F0070208684FF6FF0391
:10079000184040EA0220034A1043086070470000F6
:1007A0000CED00E00000FA052B492C4B0A683221C1
:1007B0004A432B4940B1B0F5007F086829D020F4A6
:1007C000C06040F480602CE00868C0F3412002283B
:1007D00004D051F8800F20F4807022E0D1F880001E
:1007E00020F48070C1F88000086820F4C06040F4F4
:1007F00000700860B2FBF3F0401C00E0401E4A6944
:10080000520501D50028F9D1486940050AD50320D1
:100810007047C0F34120022806D051F8800F40F401
:100820008070086000207047D1F8800040F480702C
:10083000C1F88000086820F4C06040F400700860CF
:10084000B2FBF3F0401C00E0401E4A695205DBD5C4
:100850000028F9D1D8E700001000002040420F0026
:10086000007000400248816841F480418160704717
:10087000007000402DE9F8430446006800269D4DB5
:1008800000035ED5A86D0027C00008D4A86D40F015
:100890008050A865A86D012700F080500090DFF817
:1008A0005892D9F8001041F48071C9F80010FFF790
:1008B000E3FE804606E000BFFFF7DEFEA0EB080087
:1008C00002282BD8D9F80000C005F5D5D5F890003E
:1008D00010F4407014D0216C814211D0D5F89000F2
:1008E000D5F8901020F4407041F48031C5F8901094
:1008F000D5F8901021F48031C5F89010C5F890001B
:10090000C00711D0FFF7B8FE804641F2883907E0F2
:10091000FFF7B2FEA0EB0801494501D903260BE021
:10092000D5F890008007F3D5D5F89000216C20F41D
:1009300040700843C5F890001FB1A86D20F08050AA
:10094000A8652078C00707D0D5F88800616820F036
:1009500003000843C5F888002078800707D5D5F83C
:100960008800A16820F00C000843C5F888002078B2
:10097000400707D5D5F88800E16820F0300008432B
:10098000C5F888002078000707D5D5F888002169C8
:1009900020F0C0000843C5F888002078800607D5FD
:1009A000D5F88800616920F440600843C5F88800E4
:1009B0002078400607D5D5F88800A16920F440507A
:1009C0000843C5F888002078000607D5D5F88800C8
:1009D000E16920F440400843C5F888002088C0053C
:1009E00007D5D5F88800216A20F440300843C5F8BF
:1009F00088002088800507D5D5F88800616A20F432
:100A000040200843C5F88800208840050FD5D5F858
:100A10008800A16A20F440100843C5F88800A06A45
:100A2000B0F5801F03D1E86840F48010E8602088AA
:100A300000050FD5D5F88800E16A20F4400008438E
:100A4000C5F88800E06AB0F5800F03D1E86840F48B
:100A50008010E8602088C0040FD5D5F88800216B8D
:100A600020F040700843C5F88800206BB0F1807F0B
:100A700003D1E86840F48010E86020884FF00061FE
:100A800080040ED5D5F88800626B20F040601043DA
:100A9000C5F88800606B884203D1E86840F4801094
:100AA000E860208840040ED5D5F88800A26B20F0BD
:100AB00040601043C5F88800A06B884203D1E86805
:100AC00040F48010E860208800040FD5D5F8880035
:100AD000E16B20F040500843C5F88800E06BB0F1AE
:100AE000805F03D1E86840F48030E8603046BDE8BC
:100AF000F883000000100240007000402DE9F0472C
:100B00000E4605004FF0000725D0DFF8AC81D8F87D
:100B1000000000F00F00B0420CD2D8F8001021F015
:100B20000F013143C8F80010D8F8000000F00F00A2
:100B3000B04210D12968614CC80741F2883A5AD0B6
:100B40006868DFF87C91032808D0022820682DD03F
:100B5000400500282CDB0120BDE8F08720688001DB
:100B6000F9D5E06800F00302E068C0F30310401C10
:100B7000032A19D0534A00BFB2FBF0F0E268C2F377
:100B800006225043E268C2F34162521C5200B0FB9D
:100B9000F2F0484517D9A06810F0F00F0CD0880784
:100BA00011D5A86840B10EE0474AE5E78003D0E7D9
:100BB00000F0B6F8484506D9A06820F0F00040F0F3
:100BC0008000A0608027A068696820F003000843C7
:100BD000A060FFF751FD814606E000BFFFF74CFD26
:100BE000A0EB090151453AD8A068696800F00C00F3
:100BF000B0EB810FF2D12868810714D5400703D5E7
:100C0000A06840F4E060A0602878000705D5A068DF
:100C100020F4605040F4E060A060A068A96820F073
:100C2000F000084304E0802F03D1A06820F0F0001A
:100C3000A060D8F80010404601F00F01B14216D96B
:100C4000016821F00F0131430160FFF715FD0746F0
:100C500007E000BFFFF710FDC11B514501D903207C
:100C60007AE7D8F8000000F00F00B042F2D12878FF
:100C7000400705D5A068E96820F4E0600843A0605B
:100C80002878000706D5A068296920F4605040EA5A
:100C9000C100A06000F044F8A1680C4AC1F3031140
:100CA000515C01F01F01C84009490860094800680B
:100CB000BDE8F047FFF7FEBC0020024000100240F4
:100CC00000B4C4040024F40000366E018429000836
:100CD00010000020140000200548064900688968BB
:100CE000054AC1F30221515C01F01F01C840704761
:100CF0001000002000100240942900080548064911
:100D000000688968054AC1F3C221515C01F01F01E6
:100D1000C8407047100000200010024094290008CD
:100D2000184910B58868C0F381021748012A0BD012
:100D30008A68164BC2F38102022A06D08A68C2F37F
:100D40008102032A03D0002010BD184610BDCA68D6
:100D500002F00304CA68C2F30312521C032C02D02F
:100D6000B0FBF2F001E0B3FBF2F0CA68C968C2F36D
:100D700006225043C1F34161491C4900B0FBF1F028
:100D800010BD0000001002400024F40000366E0187
:100D90002DE9F84304007AD02078F84DC00747D0F9
:100DA000A868E96800F00C0001F003010C2802D0EB
:100DB000082817D001E0032914D06068B0F5803FFF
:100DC00017D0B0F5A02F286817D020F48030286005
:100DD000286820F4802028606068E0B1FFF74CFCB0
:100DE000064614E02868800322D560680028D2D027
:100DF0001EE0286840F48030EDE740F48020286051
:100E0000F7E700BFFFF738FC801B642870D828681C
:100E10008003F7D50CE0FFF72FFC064605E000BF86
:100E2000FFF72AFC801B6428F0D828688003F7D4D9
:100E3000207880074CD5A868E96800F00C0001F024
:100E400003010C2802D004280DD001E002290AD0A9
:100E5000E068002828682BD040F480702860FFF7F5
:100E60000BFC064619E02868400502D5E06800281A
:100E700091D06868217C20F0FE4040EA0160686003
:100E8000BF480068FFF716FC002800D120E072E19F
:100E9000FFF7F2FB801B0228B8D828684005F7D579
:100EA0006868217C20F0FE4040EA016068600FE045
:100EB00020F480702860FFF7DFFB064605E000BFE6
:100EC000FFF7DAFB801B0228A0D828684005F7D47A
:100ED0002078000729D560690028D5F8940013D040
:100EE00040F00100C5F89400FFF7C6FB064606E097
:100EF00090E000BFFFF7C0FB801B022886D8D5F822
:100F000094008007F6D510E020F00100C5F89400A9
:100F1000FFF7B2FB064604E0FFF7AEFB801B02289A
:100F200078D8D5F894008007F6D42078400761D5AA
:100F3000A86D0026C00008D4A86D40F08050A865B8
:100F4000A86D012600F0805000908E480168C90508
:100F500011D40168804641F480710160FFF78CFB79
:100F6000074604E0FFF788FBC01B022852D8D8F8D8
:100F70000000C005F6D5A068012815D00528D5F8D1
:100F8000900016D020F00100C5F89000D5F8900030
:100F900020F00400C5F89000A06841F28838B8B18C
:100FA000FFF76AFB07460EE0D5F8900040F001001D
:100FB000F0E740F00400C5F89000F5E7FFF75CFBB0
:100FC000C11B414526D8D5F890008007F6D50CE026
:100FD000FFF752FB074604E0FFF74EFBC11B4145FC
:100FE00018D8D5F890008007F6D41EB1A86D20F06F
:100FF0008050A8652078800629D5A0690028D5F8FA
:10100000980013D040F00100C5F89800FFF734FBBA
:10101000064606E075E000BFFFF72EFB801B0228A6
:101020006FD8D5F898008007F6D510E020F00100C1
:10103000C5F89800FFF720FB064604E0FFF71CFB0D
:10104000801B02285DD8D5F898008007F6D4E069A7
:10105000F0B3A968C1F3810103295DD00228286893
:1010600020F08070286003D0FFF706FB04464BE0B9
:10107000FFF702FB064604E0FFF7FEFA801B02289A
:101080003FD828688001F7D4F4E908016FF00F0217
:1010900002EB01110843218A5204490802EB415135
:1010A000A26841EA02210843217D4FF07E424908AF
:1010B00002EB41610843217B40EAC160E968324AA2
:1010C00011400843E860286840F08070286000E024
:1010D0005EE0E86840F08070E860FFF7CDFA044613
:1010E00005E000BFFFF7C8FA001B022809D82868EE
:1010F0008001F7D54CE000BFFFF7BEFA001B0228C5
:1011000002D90320BDE8F88328688001F4D4E86898
:101110001E490840E8603BE00128F3D0E868226AF5
:1011200000F00301914226D1616A00F0F00209014A
:10113000103991421FD1A26A00F4FE41B1EB022F97
:1011400019D194F82C2000F07841B1EBC26F12D184
:10115000218E00F4C00249084905A1F50011914211
:1011600009D194F8341000F0C06049084906A1F193
:10117000007181420CD00120C4E700000010024041
:1011800014000020007000400C809F01FCFFEEFE68
:101190000020B7E710B5401EB0F1807F01D30120D9
:1011A00010BD4FF0E02460610F21601701F08EFB4D
:1011B0000020A06107202061002010BD704770470B
:1011C0007047704770477047704710B5040003D0F0
:1011D00094F83D0010B107E0012010BD002084F814
:1011E0003C00204600F022F8022084F83D00211D3A
:1011F000206801F06FF8012084F8480084F83E0070
:1012000084F83F0084F8400084F8410084F84200EC
:1012100084F8430084F8440084F8450084F84600CC
:1012200084F8470084F83D00002010BD08B5006830
:101230000B49884212D10B48016E41F480210166AE
:10124000006E002200F48020009011461A20FFF763
:1012500079FABDE808401A20FFF766BA08BD000019
:10126000004801400010024070472DE9F04104465B
:101270000068C66805694FF00007A90713D5B107D4
:1012800011D5F91E0161012020772068806980074F
:10129000204602D0FFF7E8FF04E000F0B7F8204650
:1012A00000F0B5F82777680716D5700714D52168C0
:1012B0006FF004000861022020772068806910F434
:1012C000407F204602D0FFF7CFFF04E000F09EF8F9
:1012D000204600F09CF82777280715D5300713D54E
:1012E00021686FF008000861042020772068C06939
:1012F0008007204602D0FFF7B7FF04E000F086F831
:10130000204600F084F82777E80616D5F00614D5B5
:1013100021686FF010000861082020772068C069FC
:1013200010F4407F204602D0FFF79EFF04E000F05B
:101330006DF8204600F06BF82777E80708D0F00733
:1013400006D021686FF001000861204600F060F8C7
:10135000280601D4A80408D5300606D521686FF404
:10136000025008612046FFF72AFFE80508D530063D
:1013700006D521686FF4807008612046FFF71EFFD4
:10138000680608D5700606D521686FF04000086130
:10139000204600F049F8A80608D5B00606D5216811
:1013A0006FF0200008612046FFF70AFFE80208D529
:1013B000F00206D521686FF4801008612046FFF71F
:1013C00001FFA80208D5B00206D521686FF400100D
:1013D00008612046FFF7F5FE680208D5700206D5C1
:1013E00021686FF4800008612046FFF7ECFE2802B8
:1013F0000AD5300208D521686FF400000861204644
:10140000BDE8F041FFF7E0BEBDE8F08170477047EE
:101410000349884203D103480168491C01607047B1
:101420004802002008000020704790F8841001292D
:1014300018D0012180F884102421C0F88810016898
:101440000A680B6823F001030B6022F000510022B0
:101450004266036819602021C0F8881080F8842053
:1014600010467047022070477047704770B50446B9
:1014700090F8840001281DD0012084F884002420E5
:10148000C4F8880020680568026822F00102026042
:101490002068826822F060620A438260204600F081
:1014A00077FF206805602020C4F88800002084F8B9
:1014B000840070BD022070BD70B5044690F88400B1
:1014C00001281DD0012084F884002420C4F888005D
:1014D00020680568026822F00102026020688268C4
:1014E00022F060420A438260204600F051FF2068EB
:1014F00005602020C4F88800002084F8840070BDB6
:10150000022070BD70477047704700002DE9F04120
:1015100003680446D86919689A6840F60F0528429E
:101520004FF000054FF002060AD187067ED501F084
:10153000200702F0805C57EA0C0777D0616F3AE130
:10154000B24FDFF8CCC2174001EA0C0C57EA0C0C82
:101550006CD05FEAC07C0CD05FEAC15C09D54FF06B
:10156000010CC3F820C0D4F8903043F00103C4F854
:101570009030830709D5D30707D023681E62D4F8BB
:10158000903043F00403C4F8903043070AD5D307E2
:1015900008D0266804233362D4F8903043F0020365
:1015A000C4F8903003070CD501F020033B4308D06A
:1015B000266808233362D4F8903043F00803C4F857
:1015C000903003050BD54B0109D526684FF4006315
:1015D0003362D4F8903043F02003C4F89030D4F84C
:1015E0009030002B3DD0800609D501F0200002F09C
:1015F0008051084303D0616F09B120468847D4F871
:10160000900021688968490602D410F0280F2AD07A
:10161000204600F0A3FF2068806840061ED52068A1
:10162000083050E8001F21F0400100E021E040E8D0
:101630000012002AF3D1D4F8800078B17549816393
:10164000D4F88000FEF7A0FE00280AD0D4F880006D
:10165000816B00E02046BDE8F04108472046FFF7D7
:1016600053FFBDE8F0812046FFF74EFFC4F89050CD
:10167000F7E7D4F86CC02027BCF1010F7ED15FEAF8
:10168000C06C7BD55FEAC16C78D5102018622068E9
:101690008068400645D5D4F880100868406800048A
:1016A000000CDED0B4F85C208242DAD9A4F85E00E7
:1016B0000868006880062CD4216851E8000F20F4E7
:1016C000807041E80002002AF6D12068083050E816
:1016D000001F21F0010140E80012002AF5D1206826
:1016E000083050E8001F21F0400140E80012002AB5
:1016F000F5D1C4F88C70E566206850E8001F21F031
:10170000100140E80012002AF6D1D4F88000FEF75C
:1017100006FE2667B4F85C00B4F85E10401A81B289
:1017200030E0B4F85C00B4F85E10401A81B2B4F84E
:101730005E00002895D0002993D0226852E8000F5F
:1017400020F4907042E80003002BF6D12F4BDB43CE
:101750002068083050E8002F1A4040E8002CBCF107
:10176000000FF5D1C4F88C70E5666567226852E811
:10177000000F20F0100042E8000300E006E0002B1C
:10178000F4D126672046FFF76FFE6AE7C60209D547
:10179000560207D54FF4801018622046BDE8F0418C
:1017A000FFF7B1BE03060AD501F0800302F4000280
:1017B000134304D0A16F00297FF44CAF51E74206D8
:1017C00011D54A060FD52046026852E8001F21F0C5
:1017D000400142E80013002BF6D1C0F888708567FD
:1017E00000F017F93DE7020206D54A0004D520466D
:1017F000BDE8F041FFF786BEC001C6D50029C4DAB6
:101800002046BDE8F041FFF730BE000001000010A7
:10181000200100044925000810B5040003D0D4F8C5
:10182000880010B107E0012010BD002084F884007A
:10183000204600F027F82420C4F8880020680168BA
:1018400021F001010160A06A10B1204600F0C2FD44
:10185000204600F0ADFE0128E6D02068416821F462
:10186000904141602068816821F02A0181602068F0
:10187000016841F0010101602046BDE8104000F020
:101880000DBE0000F0B597B00446142111A8FEF774
:10189000F9FC44216846FEF7F5FC2F4920682F4CDF
:1018A000022600254FF0904788422CD12020059534
:1018B00000906846FEF7DEFF08B1FEF72FFDE06DF1
:1018C00040F00100E065E06D00F001001690E06C72
:1018D00040F00100E064E06CCDE9126500F0010029
:1018E00016900C20CDE91450119011A93846FEF73E
:1018F00099FD002211465B20FEF724FF5B20FEF7D6
:1019000013FF17B0F0BD16498842FAD10120CDE986
:1019100000056846FEF7AEFF08B1FEF7FFFC206E3B
:1019200040F480402066206E00F480401690E06C09
:1019300040F00100E064E06CCDE9126500F00100C8
:1019400016904FF4C06011900720CDE9145011A9F2
:101950003846FEF767FDD4E70080004000100240E3
:10196000003801402DE9F8430446D0F88800984635
:1019700016460D46202802D00220BDE8F883A5B106
:101980009EB10020C4F890002120C4F888001834CB
:10199000FEF772FEA6878146E68754F8100C2027D2
:1019A000183CB0F5805F02D003E00120E5E7206934
:1019B00010B12E46002510E000260EE080212046C2
:1019C00000F030FFC0B9DEB116F8010B2168886263
:1019D000B4F85600401EA4F85600B4F856004B4622
:1019E0004FF00002CDF800800028E7D14FF0400111
:1019F000204600F017FF40B1C4F888700320BCE710
:101A000035F8020BC0F30800E0E7C4F88870002046
:101A1000B3E77047FEE7000000B585B014216846C3
:101A2000FEF730FC4FF6FF70009000200321CDE957
:101A30000201019069460248FEF7F4FC05B000BDC2
:101A40000008004800B585B014216846FEF71AFC6E
:101A50004FF6FF70009001200190032003900020BA
:101A6000029069460248FEF7DDFC05B000BD0000AB
:101A70000008004870B5002406462146204600F0C4
:101A8000B5F800F0F3F84FF49635304600F0C2F8A0
:101A9000641CAC42F9D370BD30B587B014216846E0
:101AA000FEF7F0FB1E48C16C41F00401C164C16C3B
:101AB00001F004010591C16C41F00101C164C16CE8
:101AC00001F001010591C16C41F00201C164C06CDB
:101AD000012500F0020005904FF44870CDE90005A3
:101AE00000240394694602940E48FEF79BFC2802EA
:101AF00003940090CDE901544FF09044694620468C
:101B0000FEF790FCFFF79EFFA06940F48070A06193
:101B100004481830016841F40871016007B030BD15
:101B2000001002400004004810B5FFF7B5FF002088
:101B300000F014F8084CA080A088A0F502413039CC
:101B400006D000F081FA002000F008F8A08010BD57
:101B500000F0F1F9F7E700000000002070B51D4922
:101B60000A6842F400720A600A6842F480720A60ED
:101B7000184C103C226842F020022260164A106085
:101B8000086840F02000086000BF00BF00BF206868
:101B900040F020002060206840F480702060FFF753
:101BA0003BFF4FF09041886A40F48070886200BF2C
:101BB00000BF00BF0848001F006885B2886940F474
:101BC00080708861FFF73EFF206840F4007020605D
:101BD000284670BD280400481408004801B5BDF827
:101BE00000000149488008BD0000002010B50C46E7
:101BF0000146202000F068F82146BDE81040212071
:101C000000F062B801B5BDF800000149088008BDC8
:101C100000000020134A116841F40071116011495D
:101C200010390B6843F480730B600B6843F020039A
:101C30000B600D4B1860106840F02000106000BF72
:101C400000BF00BF086840F020000860086840F44A
:101C50008070086000BF00BF00BF086840F40070DB
:101C600008607047280400481408004814490868B0
:101C700040F400700860086840F480700860104804
:101C80001038026842F0200202600E4B22221A60D5
:101C90000A6842F020020A6000BF00BF00BF01686E
:101CA00041F020010160016841F48071016000BFD2
:101CB00000BF00BF016841F400710160704700007F
:101CC0002804004814080048184B10B51A6842F45C
:101CD00000721A601A6842F480721A60134A103A4D
:101CE000146844F020041460114C2060186840F01F
:101CF0002000186000BF00BF00BF106840F0200047
:101D00001060106840F4807010602160186840F026
:101D10002000186000BF00BF00BF106840F0200026
:101D20001060106840F48070106010BD28040048F6
:101D3000140800480148FFF7E9BB0000200100201B
:101D40002DE9F04786B014216846FEF79BFA334828
:101D5000C16C41F00401C164C16C01F00401059142
:101D6000C16C41F02001C164C16C01F020010591FA
:101D7000C16C41F00101C164C16C01F00101059128
:101D8000C16C41F00201C164C06CDFF8948000F0C6
:101D900002004FF6FF740590002221464046FEF7F0
:101DA00065FC4FF480764FF090490022314648465A
:101DB000FEF75CFCDFF86CA04FF448770022394650
:101DC0005046FEF753FC0125CDE90045002402945E
:101DD000694640460394FEF725FBCDE90054694669
:101DE00048460295FEF71EFB07208DE83100694644
:101DF0005046FEF717FB0096CDE901546946484668
:101E00000394FEF70FFB0097CDE901546946504655
:101E10000394FEF707FB06B0BDE8F0870010024010
:101E20000008004800040048174810B51549016033
:101E300016494160002181600C22C160C0E9041292
:101E40008161016241628162FFF7E6FC08B1FEF741
:101E500065FA00210C48FFF72FFB08B1FEF75EFA88
:101E600000210948FFF702FB08B1FEF757FA0648C0
:101E7000FFF7DBFA002803D0BDE81040FEF74EBAAA
:101E800010BD00000080004020010020243303002A
:101E90000C4810B50A4901604F214160002142F20F
:101EA0000F72C0E90212016141618161FFF78DF992
:101EB000002803D0BDE81040FEF730BA10BD000086
:101EC0000048014048020020184810B5164901603A
:101ED0004FF4E1314160002181600C22C160C0E912
:101EE00004128161C161016241628162FFF794FC69
:101EF00008B1FEF713FA00210C48FFF7DDFA08B12C
:101F0000FEF70CFA00210948FFF7B0FA08B1FEF716
:101F100005FA0648FFF789FA002803D0BDE810400B
:101F2000FEF7FCB910BD000000380140B4010020EC
:101F3000FEE77047704730B501210020FFF7C4FE6F
:101F40004FF47A70FEF7DCF900210120FFF7BCFEA8
:101F500041F290711020FFF7B7FE4FF41C51602042
:101F6000FFF7B2FE01216120FFF7AEFE02214620FD
:101F7000FFF7AAFE48F210011320FFF7A5FE48F272
:101F8000FE011220FFF7A0FE4FF4A0610220FFF730
:101F90009BFE41F230010320FFF796FE40F203342E
:101FA00021463020FFF790FE21463120FFF78CFEBE
:101FB00021463220FFF788FEE51E29463320FFF731
:101FC00083FE03213420FFF77FFE21463520FFF7F3
:101FD0007BFE14213620FFF777FE21463720FFF7DE
:101FE00073FE21463820FFF76FFE21463920FFF7A8
:101FF0006BFE29463A20FFF767FE03213B20FFF7DF
:1020000063FE21463C20FFF75FFE4FF4A0513D20C8
:10201000FFF75AFE4FF400719220FFF755FE21465C
:102020009320FFF751FE40F60D019020FFF74CFE84
:1020300041F218010320FFF747FEBDE8304040F2AF
:1020400073110720FFF740BE10B543F20801E320EB
:10205000FFF73AFE1221E720FFF736FE41F2312169
:10206000EF20FFF731FE00210120FFF72DFE4FF496
:10207000E0610220FFF728FE41F230010320FFF764
:1020800023FE00210420FFF71FFE40F20721082055
:10209000FFF71AFE00210920FFF716FE00210A2093
:1020A000FFF712FE00210C20FFF70EFE00210D208D
:1020B000FFF70AFE00210F20FFF706FE0021102087
:1020C000FFF702FE07211120FFF7FEFD002112207D
:1020D000FFF7FAFD00211320FFF7F6FDC820FEF7F9
:1020E0008FF941F290611020FFF7EEFD40F22721B9
:1020F0001120FFF7E9FD3220FEF782F91D211220A1
:10210000FFF7E2FD3220FEF77BF94FF40061132068
:10211000FFF7DAFD14212920FFF7D6FD0B212B2034
:10212000FFF7D2FD3220FEF76BF900212020FFF7E8
:10213000CBFD00212120FFF7C7FD07213020FFF74D
:10214000C3FD40F207713120FFF7BEFD06213220AA
:10215000FFF7BAFD40F204713520FFF7B5FD41F6F7
:1021600004713620FFF7B0FD04213720FFF7ACFDE6
:1021700000213820FFF7A8FD40F206713920FFF753
:10218000A3FD40F201713C20FFF79EFD0F213D2091
:10219000FFF79AFD00215020FFF796FDEF21512017
:1021A000FFF792FD00215220FFF78EFD40F23F1114
:1021B0005320FFF789FD4FF41C516020FFF784FD89
:1021C00001216120FFF780FD00216A20FFF77CFDDF
:1021D00000218020FFF778FD00218120FFF774FDAA
:1021E00000218220FFF770FD00218320FFF76CFDA6
:1021F00000218420FFF768FD00218520FFF764FDA2
:1022000010219020FFF760FD00219220FFF75CFD78
:1022100003219320FFF758FD4FF488719520FFF7B5
:1022200053FD00219720FFF74FFD00219820FFF775
:102230004BFD41F218010320FFF746FDBDE81040B9
:1022400040F273110720FFF73FBD7047FEF71ABA3F
:1022500000B593B038216846FEF714F814210EA893
:10226000FEF710F84FF40070FEF79EFA0220C1014D
:102270000391402104910090079008901421CDE92A
:1022800009010B900C900D906846FEF781FD0F2020
:102290000E9003200F9000201090119012900221B8
:1022A0000EA8FEF72BFC13B000BD00000548016826
:1022B00041F47001016003494FF00060803908600B
:1022C0007047000088ED00E00148FEF7CEBF000037
:1022D000480200202DE9F0430268264B264D274E88
:1022E000274C4FF08049984207D0484505D0A84276
:1022F00003D0B04201D0A04203D122F070074A6857
:102300003A43204FDFF880C0DFF8808098420DD03C
:1023100048450BD0A84209D0B04207D0A04205D012
:10232000B84203D0604501D0404503D122F4407546
:10233000CA682A434D6922F080022A4302608A68F3
:10234000C2620A688262984207D0A04205D0B842B1
:1023500003D0604501D0404501D1096901630121E5
:1023600041610169C90703D0016921F001010161DF
:10237000BDE8F083002C014000040040000800404C
:102380000034014000400140004401400048014049
:1023900030B5416EB9B1026891689268C1F342618B
:1023A0000B4B520F9C5CE50003F10804A25CB5FBEB
:1023B000F2F2A0F86A205A5C615CD200B2FBF1F143
:1023C000A0F8681030BD0121A0F86A10F8E70000FD
:1023D000B429000890F82810090706D501684A6852
:1023E000836B22F400421A434A6090F82810C90710
:1023F00006D001684A68C36A22F400321A434A6070
:1024000090F82810890706D501684A68036B22F402
:1024100080321A434A6090F82810490706D50168AF
:102420004A68436B22F480221A434A6090F82810CD
:10243000C90606D501688A68C36B22F480521A4324
:102440008A6090F82810890606D501688A68036CAE
:1024500022F400521A438A6090F82810490611D5D8
:1024600001684A68436C22F480121A434A60416C46
:10247000B1F5801F06D101684A68836C22F4C0025E
:102480001A434A6090F82810090606D501684A6880
:10249000C06C22F4002202434A6070472DE9F843E1
:1024A00000260446C0F89060FEF7E6F880462068F3
:1024B00000684FF0200500076FF07E4713D54346B4
:1024C000002229042046009700F0ACF958B1216899
:1024D00051E8000F20F0800041E80002002AF6D108
:1024E000C4F8885021E020680068400722D54346A0
:1024F00000224FF480012046009700F093F9C8B104
:10250000216851E8000F20F4907041E80002002A91
:10251000F6D12068083050E8001F21F0010140E8A2
:102520000012002AF5D1C4F88C5084F8846003208E
:10253000BDE8F883C4F88850C4F88C5044F86C6F38
:10254000666026760020F3E710B5806A0021A0F8C7
:102550005E10A0F85610FEF7D7FF10BD10B5026848
:1025600052E8001F21F4907142E80013002BF6D1CD
:102570000E4B0268083252E8001F194042E800146E
:10258000002CF6D1C16E012908D1016851E8002F55
:1025900022F0100241E80023002BF6D12021C0F8E0
:1025A0008C100021C166416710BD0000FEFFFFEFE7
:1025B0002DE9F0410446016880682269E36910430F
:1025C000626900251A431043DFF82CC20A688B4B5E
:1025D0001A4002430A6020684168E26821F44051D1
:1025E000114341602168A069614501D0226A10430E
:1025F0008A68834B1A4002438A602068C16A626A13
:1026000021F00F011143C1627E4923687E488B424D
:102610000DD1D0F8880010F0030006D0012855D065
:10262000022842D003283FD152E001203DE0774903
:102630008B420BD1D0F8880010F00C0035D0042864
:1026400033D0082840D00C282ED141E070498B426D
:102650000BD1D0F8880010F0300026D0102835D0EB
:10266000202831D030281FD132E06A498B420BD16B
:10267000D0F8880010F0C00017D0402826D080285D
:1026800022D0C02810D123E063450DD1D0F88800B6
:1026900010F4406009D0B0F5806F17D0B0F5006F2E
:1026A00012D0B0F5406F13D010205B495B4F00266D
:1026B0004FF4004263453BD160B1022813D0042897
:1026C0000BD0082872D10DE00220EEE70420ECE7E1
:1026D0000820EAE7FEF700FB01E0FEF721FB01001E
:1026E00001D17CE01146606A37F810206768B1FBC1
:1026F000F2F007EB4703834270D8B0EB073F6DD889
:10270000002308461946FDF785FD090241EA1061DC
:1027100002027808101871413A460023FDF77AFD4D
:102720003F4AA0F54071914258D82168C86056E0F0
:10273000E3694FF6EF7893422CD109284ED2DFE8B7
:1027400000F00508114D0D4D4D4D1000FEF7C4FA77
:1027500001E0FEF7D3FA010004D140E0FEF7E0FA11
:10276000F9E71146606A37F81000B1FBF0F041005C
:10277000606801EB5001B1FBF0F0A0F110014145A0
:102780002CD84FF6F0710140C0F34200014320689D
:10279000C16024E0092821D2DFE800F005091220F9
:1027A0000E2020201100FEF797FA02E016E0FEF757
:1027B000A5FA010004D112E0FEF7B2FAF9E71146DA
:1027C000606A37F81000B1FBF0F1606801EB50016E
:1027D000B1FBF0F0A0F1100141450AD9012501201B
:1027E000A4F86A0024F8680F2846E6602661BDE870
:1027F000F08180B299E7000000800040F369FFCFCC
:10280000FFF4FF1100380140001002400044004076
:1028100000480040004C00400024F4009C290008BF
:10282000FFFC0F002DE9F047994617460D46044678
:102830004FF00008089E33E0701C31D0FDF71CFFFC
:10284000A0EB0900B04218D8BEB120680168490762
:1028500026D5802D24D0402D22D0C169C943090737
:102860000DD4082505622046FFF778FEC4F8905085
:1028700084F884800120BDE8F0870320FBE7C0696D
:10288000C04300050CD421684FF400600862204664
:10289000FFF764FE2020C4F8900084F88480ECE701
:1028A0002068C06935EA000004D00020B842C3D0D7
:1028B0000020E0E70120F9E7FEE70000014A0249B5
:1028C00000F023B82D2900080C0000200907090E8C
:1028D000002804DB00F1E02080F80014704700F0CD
:1028E0000F0000F1E02080F8141D704702E008C8D6
:1028F000121F08C1002AFAD170477047002001E07A
:1029000001C1121F002AFBD170472DE9F041164684
:102910000F460446002503E03946B047641C6D1C91
:1029200020780028F8D12846BDE8F08113B50123AE
:102930001A4669460248FFF715F800981CBD0000CA
:10294000B4010020FDF7A6FEFFF782FCFFF7F8F9BF
:10295000FFF7BAFAFFF768FAFFF79AFAFFF7E4F819
:102960000020FFF787F80020FFF738F94FF6FF70D7
:10297000FFF748F901A0FFF7A1FFFEE752454144E8
:10298000590D0A00000000000000000001020304CD
:10299000060708090000000001020304010002000C
:1029A0000400060008000A000C001000200040008F
:1029B0008000000101010103070100000804020476
:1029C00008010101E42900080000002020000000A7
:1029D000EC280008042A00082000002078060000E7
:1029E000FC2800080000FFFF0000000000000000BD
:1029F000000000000024F4001000000001000000AE
:042A000000000000D2
:04000005080001D915
:00000001FF
